:020000040800F2
:10000000A8DC01204D030008653300084F300008CC
:1000100063330008890900084B6C000800000000E9
:100020000000000000000000000000008D02000839
:100030008B09000800000000E9020008E34D0008F9
:1000400071030008710300087103000871030008C0
:1000500071030008710300087103000871030008B0
:1000600071030008710300087103000871030008A0
:100070007103000871030008710300087103000890
:100080007103000871030008710300087103000880
:100090007103000871030008710300087103000870
:1000A0007103000871030008710300087103000860
:1000B000710300080D4E0008710300087103000869
:1000C0007103000871030008710300087103000840
:1000D00071030008CD500008710300087103000887
:1000E0007103000871030008710300087103000820
:1000F0007103000871030008710300087103000810
:1001000071030008710300087103000871030008FF
:1001100071030008710300087103000871030008EF
:1001200071030008710300087103000871030008DF
:1001300071030008710300087103000871030008CF
:100140007103000871030008710300086933000897
:1001500071030008710300087103000871030008AF
:10016000710300087103000871030008710300089F
:10017000710300087103000871030008000000000B
:10018000710300087103000800F002F800F06FF836
:100190000AA090E8000C82448344AAF10107DA45E2
:1001A00001D100F064F8AFF2090EBAE80F0013F0C5
:1001B000010F18BFFB1A43F0010318473079000004
:1001C000507900000A444FF0000C10F8013B13F086
:1001D000070408BF10F8014B1D1108BF10F8015BA0
:1001E000641E05D010F8016B641E01F8016BF9D193
:1001F00013F0080F1EBF10F8014BAD1C0C1B09D1EA
:100200006D1E58BF01F801CBFAD505E014F8016B5B
:1002100001F8016B6D1EF9D59142D6D370470000ED
:100220000023002400250026103A28BF78C1FBD8FF
:10023000520728BF30C148BF0B60704703681B0AD4
:1002400028BF41F08001642900F05681E42900F0C4
:100250008F81632900F04483732900F049830020D3
:1002600070471FB507F0FAFB1FBD10B510BD00F0B9
:1002700059FB1146FFF7F5FF06F084FD00F077FB10
:1002800003B4FFF7F2FF03BC06F0F0FC2C4B196837
:100290000868B0E8F04F80F30988BFF36F8F4FF024
:1002A000000080F3118870470000000008480068D3
:1002B000006880F308884FF0000080F3148862B66D
:1002C00061B6BFF34F8FBFF36F8F00DF00BF00BF7A
:1002D00008ED00E0DFF80C00016841F470010160F6
:1002E000704700BF88ED00E0EFF30980BFF36F8F28
:1002F000134B1A681EF0100F08BF20ED108A20E97A
:10030000F04F106009B44FF0500080F31188BFF334
:100310004F8FBFF36F8F07F07FFA4FF0000080F32D
:10032000118809BC19680868B0E8F04F1EF0100F7A
:1003300008BFB0EC108A80F30988BFF36F8F704755
:1003400020000020EFF30580704700000C48016892
:1003500041F4700101600B4880470B480047FEE7FD
:10036000FEE7FEE7FEE7FEE7FEE7FEE7FEE7FEE765
:10037000FEE7000005480649064A074B70470000A3
:1003800088ED00E0FD4D000889010008A8C80120A3
:10039000A8DC0120A8D80120A8D80120704753EA82
:1003A000020C00F069802DE9F04B4FF00006002BA5
:1003B0001FBFB3FA83F503FA05F424FA05F65E408D
:1003C00012BF1643B2FA82F502FA05F4C5F1200510
:1003D0001EBF22FA05FC44EA0C04203556EA044C00
:1003E0004FEA144418BF641C4FF000084FF0000996
:1003F000904271EB030C39D3002919BFB1FA81F790
:1004000001FA07F6B0FA80F700FA07F6C7F12007FD
:100410001EBF20FA07FC46EA0C062037B6FBF4FCA8
:10042000A7EB0507103F07F01F0BCBF120060CFAD6
:100430000BFB2CFA06F644BFB3460026202FA4BFC0
:100440005E464FF0000B5BEA060C08BF4FF0010B55
:1004500019EB0B09ABFB027C48EB0608C01B06FB43
:1004600002CC0BFB03CC71EB0C01C1E70B4602463F
:1004700041464846BDE8F08B13B54FF000004FF001
:100480000001AFF30080BDE81C4070470FB4044981
:1004900010B503AA029800F02FFA10BC5DF814FB07
:1004A0000C00002070B50C460546012A05D02878BE
:1004B000800600D5EA69002302E0012305E05B1C09
:1004C000934202D2E05C0028F9D1A869E618C01A6C
:1004D000A861286A184428622846AFF3008004E027
:1004E000D5E9012114F8010B9047B442F8D328460E
:1004F000AFF3008070BD00002DE9F04106460024F6
:1005000010687529314616A510D0AFF30080002879
:1005100002DA404213A507E031688A0701D512A527
:1005200002E0490704D511A5012401E0AFF30080E2
:1005300000210A2206F1240709E0B0FBF2FCB0FB1F
:10054000F2F302FB1C00303078541846491C002896
:10055000F3D123462A463046BDE8F04100F044B9C5
:10056000000000002D0000002B0000002000000013
:100570002DE9F0418046D21D22F007020025D2E984
:100580000002F52915A614D0011E72F1000106DA49
:100590000023D0EB030063EB020211A608E0D8F8B9
:1005A00000108B0701D50FA602E0490701D50EA662
:1005B00001251146002408F1240704E000F0CFF8DB
:1005C00030323A55641C50EA0102F7D12B463246CC
:1005D00021464046BDE8F04100F006B900000000A9
:1005E0002D0000002B000000200000002DE9F0414C
:1005F0000F460546002028622846E968884770B300
:10060000252805D0D5E901219047286A401CF2E74A
:10061000E9682846002688476C2804460AD0682CDA
:1006200008D04C2C35D06A2C31D0742C31D07A2C97
:100630002FD016E0E968064628468847B0420446AF
:1006400008D16C2E23D04FF480662846E96888478D
:10065000044606E06C2E03D04FF4807601E01EE0E5
:100660004026E4B1A4F14100192802D8203446F410
:1006700000663A46214628462E60FFF7DFFD60B14E
:10068000012808D0FF1D27F007070837B4E78026A8
:10069000DBE70026D9E73F1DAEE72046B2E7286A30
:1006A000BDE8F08110B5203AC0F00B80B1E81850D9
:1006B000203AA0E81850B1E81850A0E81850BFF44C
:1006C000F5AF5FEA027C24BFB1E81850A0E81850EB
:1006D00044BF18C918C0BDE810405FEA827C24BF3F
:1006E00051F8043B40F8043B08BF7047D20728BFCD
:1006F00031F8023B48BF11F8012B28BF20F8023B1C
:1007000048BF00F8012B70474FF0000200B51346B8
:1007100094469646203922BFA0E80C50A0E80C5021
:10072000B1F12001BFF4F7AF090728BFA0E80C50D2
:1007300048BF0CC05DF804EB890028BF40F8042BCB
:1007400008BF704748BF20F8022B11F0804F18BF38
:1007500000F8012B7047704770477047704730B5FD
:10076000B0F10A024FEA900E71F100034EEA817E69
:10077000B0EB0E0061EB91014FEA101E4EEA017ED4
:1007800010EB0E0041EB11114FEA102E4EEA016EF4
:1007900010EB0E0041EB11214FEA104E4EEA014ED4
:1007A00010EB0E0041EB1141401841F100014FEAFE
:1007B000D00040EA41704FEAD10110EB80054FEACA
:1007C000810444EA907444EB01046D1944EB040481
:1007D000521BA3414FF0000348BF0A3200D530BD81
:1007E000401C41F1000130BD2DE9F0470D4699460E
:1007F0009246044600F124080168880604D5E069A1
:1008000021F01001216000E00120A84201DD471B1A
:1008100000E00027A1697A1902EB0900081AA0611B
:100820002078C00602D42046AFF30080002608E0FE
:10083000D4E901211AF806009047206A401C761C72
:1008400020624E45F4DB2078C0060AD52046AFF37F
:10085000008006E0D4E9012130209047206A401C46
:100860002062381EA7F10107F4DC07E0D4E901217A
:1008700018F805009047206A401C2062281EA5F148
:100880000105F3DC2046AFF300802078000602D596
:100890000220BDE8F0870120FBE7000001694A1C47
:1008A00002610878704700B58FB0CDE901310021B1
:1008B000059105497944CDE9031011466846FFF7D3
:1008C00095FE0FB000BD0000E5FFFFFF10B54369C6
:1008D00013B1AFF3008001E0FFF7E4FD012010BD8C
:1008E000127800F124010A7000224A700122EDE71B
:1008F00011684FF0FF32E9E7074B70B50D467B44B6
:10090000FFF7D1FF0446284600F008F810B14FF079
:10091000FF3070BD204670BDE3630000007B00F037
:1009200080007047754600F02BF8AE46050069461A
:10093000534620F00700854618B020B5FFF71AFD92
:10094000BDE820404FF000064FF000074FF00008D0
:100950004FF0000B21F00701AC46ACE8C009ACE851
:10096000C009ACE8C009ACE8C0098D46704710B5B5
:100970000446AFF300802046BDE81040FFF780BC7E
:100980000048704748C80120FEE7704770B5B3F5CE
:10099000804F05D06FF0704140F82210002070BDEC
:1009A00050F82230084C2340D1E9004544EA0514B0
:1009B0008D688E892D0245EA064589692C430C43D2
:1009C0001C4340F82240E9E70000F0CFF0B50C6886
:1009D00050F82450114A1540D1E90123D1E90367A9
:1009E0001A433E4332434E6932438E693243CE69E5
:1009F00032430E6A32434E6A32438E6A3243CE6AC3
:100A00003243CE6B096B32430A432A43082B01D190
:100A100042F0400240F824200020F0BD8000F0FFAA
:100A200070B5521C50F8223003F04043D1E9004524
:100A300044EA05148D688E892D0245EA06452C434B
:100A40000D8A6D1E44EA05550C7D8969A41E45EA90
:100A500004640C431C4340F82240002070BD000099
:100A600010B50B480168001D0468001D00680844AB
:100A700000280BD00822074902F0EAFA054920466F
:100A80000422BDE81040103102F0E2BA10BD0000AF
:100A9000107AFF1FA20100202DE9F0410446A76D46
:100AA00000F054F9054694F835000026022806D0D7
:100AB0008020606584F834600120BDE8F081206802
:100AC000016821F0160101602068416921F0800170
:100AD0004161206C08B9A06C20B12068016821F048
:100AE000080101602068016821F0010101600BE04C
:100AF00000F02CF9401B052806D920203434206250
:100B0000267003206070D8E720680068C007EFD126
:100B100034343F2094F828108840B86026700120B3
:100B200060700020C9E790F83510022903D08021B9
:100B3000416501207047052180F835100068016883
:100B400021F0010101600020704780B206F0A8B8D2
:100B50002DE9F84F0022DFF89C914FF0010809F1D0
:100B6000040A03274FF00F0C0AF1040B08FA02F5F0
:100B70000B682B40AB4272D10C7904F00304012CBA
:100B800001D0022C15D18668540007FA04FE26EA2B
:100B90000E06D1F80CE00EFA04FE4EEA060EC0F87E
:100BA00008E04468AC430D79C5F300159540254332
:100BB00045600C79E443A40708D0C568540007FADF
:100BC00004F6B5438E68A6402E43C6600C7904F047
:100BD0000304022C11D1D40800EB8406356A5407B3
:100BE000E40E0CFA04FE25EA0E05D1F810E00EFA28
:100BF00004FE4EEA050EC6F820E00568540007FA28
:100C000004F6B5430E7906F00306A6402E430660AF
:100C10004C68E40067D5384C256845F4804525606C
:100C2000246804F480440094344C22F003052E1907
:100C3000D6F8085894074FEA147E0CFA0EF4A54330
:100C40002F4CA04201D1002424E02E4CA04201D11F
:100C500001241FE02C4CA04202D102241AE042E001
:100C60002A4CA04201D1032414E0294CA04201D116
:100C700004240FE0274CA04201D105240AE0264CB1
:100C8000A04201D1062405E0244CA04201D1072452
:100C900000E0082404FA0EF42C43C6F80848D9F8FA
:100CA00000409C434D68ED0300D51C43C9F800404B
:100CB000DAF800409C434D68AD0300D51C43CAF8E8
:100CC0000040DBF800409C434D68ED0200D51C431A
:100CD000CBF80040074D0C352C689C434E68B6029B
:100CE00000D51C432C60521C102AFFF43FAFBDE816
:100CF000F88F0000003C01404438024000300140C1
:100D0000000002400004024000080240000C0240C3
:100D1000001002400014024000180240001C024073
:100D2000426921EA02030A4043EA024181617047B5
:100D3000002A01D081617047090481617047000079
:100D400001480068000C7047002004E001488068FA
:100D500070470000100000200248816802781144AA
:100D6000816070471000002010B50948016841F407
:100D700000710160016841F480610160052000F0AC
:100D800059F80F2000F006F800F026F8002010BDFA
:100D9000003C024070B504460D4D4FF47A7128783E
:100DA000B1FBF0F00B490968B1FBF0F001F0B5FEC2
:100DB00008B1012070BD102C07D200222146501E20
:100DC00000F018F86C60002070BD012070BD0000BC
:100DD00010000020000000207047002809DB00F010
:100DE0001F02012191404009800000F1E020C0F87D
:100DF00000117047F0B40D460D4B1B68C3F302237E
:100E0000C3F10704042C00D90424191D072901D2B9
:100E1000002300E0DB1E012606FA04F1491E2940EA
:100E200099409E40761E16403143F0BC05F00EBF3F
:100E30000CED00E000F00701054A10684FF6FF03D3
:100E4000184040EA01200349084310607047000041
:100E50000CED00E00000FA057047006841620020D8
:100E6000704770B50368586A002907D09C6A00EB88
:100E7000144400204FF48275491E0AE040EA024003
:100E800098620DE005EB80069E5904EB1644401C69
:100E9000C0B28842F6D305EB810144EA02405850C3
:100EA000002070BD10B50446054A0121117005A04F
:100EB000FFF7ECFAD4F80404BDE8104004F095BB49
:100EC0006A010020555342445F20436F6E6E656394
:100ED0007465645F43616C6C6261636B0D0A000052
:100EE000C1EBC10200EB8202D0F80404926C04F062
:100EF000E7BAC1EBC10200EB8202D0F80404D2F8D9
:100F0000082204F03BBB000010B50446054A00214E
:100F1000117005A0FFF7BAFAD4F80404BDE8104038
:100F200004F065BB6A010020555342204465766990
:100F3000636520446973636F6E6E656374656420D6
:100F400063616C6C6261636B2E0D0A0070B50446C0
:100F50000B0601F00F00C0EBC00104EB81014FF064
:100F600001024FF0000502D53C314A7002E001F564
:100F7000FE714D70087094F8BC03012808D084F805
:100F8000BC23206805F0EAF984F8BC53002070BD4A
:100F9000022070BD70B5044601F00F0062689042F7
:100FA00001D9012070BD0B0601F00F01C1EBC10199
:100FB00004EB81014FF001024FF0000502D53C31F6
:100FC0004A7002E001F5FE714D708D70087094F862
:100FD000BC03012808D084F8BC23206805F0B0FBCE
:100FE00084F8BC53002070BD022070BD10B50446CB
:100FF00094F8BC0301280AD0012084F8BC03080639
:1010000007D501F00F01206805F002FD04E0022081
:1010100010BD206805F0ECFC002084F8BC0310BD76
:1010200001F00F01C1EBC10100EB8100D0F8140207
:1010300070472DE9F04104460F0601F00F00C0EBA8
:10104000C00104EB81014FF001064FF0000502D50D
:101050003C314E7002E001F5FE714D7008708A60FF
:10106000CB704A7802B1C880022B00D10D7194F880
:10107000BC03012809D084F8BC63206805F0C2F8DD
:10108000284684F8BC53BDE8F0810220FBE770B528
:101090000D4605F00F04C4EBC40100EB810101F51E
:1010A000FE71CA604B6100238B614B700C70036949
:1010B000012B00D10A612A0705D0027C006805F0E7
:1010C00097FB002070BD027C006805F085FAF8E708
:1010D00070B504460D46616805F00F00884201D9DD
:1010E000012070BD29064FF000064FF0010206D521
:1010F000C0EBC00104EB81013C314A7006E0C5EB56
:10110000C50104EB810101F5FE714E708A70087013
:1011100094F8BC03012807D084F8BC23206805F0AC
:101120003BFB280702D007E0022070BD217C04F5BC
:101130007172206805F0DAFA84F8BC63002070BD93
:1011400070B50D4605F00F04C4EBC40100EB81013E
:101150003C31CA604B6100238B6101234B700C70E2
:101160000369012B00D10A612A0705D0027C0068BF
:1011700005F03EFB002070BD027C006805F02CFAF3
:10118000F8E700002DE9F84F04462568284605F0E9
:1011900061FC00287ED1206805F088FC002879D009
:1011A000206805F083FC800704D52068416901F0C0
:1011B00002014161206805F079FCC10604F57170F7
:1011C000009038D52068816921F0100181612F6A73
:1011D00007F00F00C0EBC00004EB800606F5FE76BA
:1011E000C7F34340022802D0062812D01EE047F67B
:1011F000F07007421AD0C7F30A1217462846F16862
:1012000005F058FCF0683844F060B0693844B061CB
:101210000CE0DCA0FFF73AF908222846009905F017
:1012200049FCB069C7F30A110844B06120688169BC
:1012300041F010018161206805F038FC00034FF097
:1012400001084FF008094FF0100A3ED5002620682B
:1012500005F00BFC834635E05FEACB702FD0F1B28E
:10126000206805F01BFC0746F80707D005EB461081
:10127000C0F8088B3146204602F0A0F8380707D5A1
:1012800005EB4610C0F8089B3146204602F072F884
:10129000F80600E073E103D505EB4610C0F808AB93
:1012A000B80604D505EB46112020C1F8080BB80498
:1012B00005D505EB46114FF40050C1F8080B761C1C
:1012C0004FEA5B0BBBF1000FC6D1206805F0EEFBC7
:1012D000400359D5206805F0C1FB8346002650E045
:1012E0005FEACB704AD0F1B2206805F0C5FB074633
:1012F000F80723D006F00F0108FA01F0D5F83418EA
:101300008143C5F8341805EB4610C0F808892069F8
:1013100001280FD1C6EBC60004EB8000D0E91121F3
:101320001144816436B9206D20B920680121009AEA
:1013300005F0DCF9F1B22046FFF7D2FD380703D5FE
:1013400005EB4610C0F80899F80603D505EB4610E2
:10135000C0F808A9780604D505EB46114020C1F86D
:101360000809B80704D505EB46110220C1F80809A1
:10137000380603D53146204602F092F8761C4FEA33
:101380005B0BBBF1000FABD1206805F08FFB002891
:1013900011DAD5F8040820F00100C5F8040894F823
:1013A000F40301282CD0204600F00CFA2068416993
:1013B00001F000414161206805F078FB00050BD584
:1013C000D5F80808C00702D0204600F051FA20687E
:1013D000416901F400614161206805F067FBC004C8
:1013E00069D56DA0FFF752F8D5F8040820F0010088
:1013F000C5F804081021206805F00AFB002125E04B
:10140000002084F8F40300212046FFF725FDCDE7F6
:1014100005EB411000F510604FF67F3282600368E3
:1014200023F400130360036843F000630360C0F813
:101430000822D0F8002222F40012C0F80022D0F8CE
:10144000002242F00062C0F80022491C6068884215
:10145000DED8D5F81C0840F00110C5F81C08206B38
:1014600060B1D5F8840840F00B00C5F88408D5F8C1
:10147000440840F00B00C5F844080CE0D5F8140807
:1014800042F22B010843C5F81408D5F8100840F0C3
:101490000B00C5F81008D5F8000820F4FE60C5F868
:1014A0000008217C2068009A05F020F92068416935
:1014B00001F480514161206805F0F8FA800418D5E4
:1014C000206804F0E1FE206805F0B4FAE06000F066
:1014D00093FA0146227B206805F02AFB31A0FEF733
:1014E000D5FF204600F024F92068416901F400513D
:1014F0004161206805F0DAFA000707D5204600F0C0
:1015000077F92068416901F008014161206805F020
:10151000CDFAC00208D50021204600F04DF8206821
:10152000416901F480114161206805F0BFFA800231
:1015300008D50021204600F043F82068416901F4F5
:1015400000114161206805F0B1FA400007D520463E
:10155000FFF7A8FC2068416901F0804141612068E3
:1015600005F0A4FA40070AD520684568680702D547
:101570002046FFF7C9FC2068416829434160BDE867
:10158000F88F0000736574757020696E74657272EF
:101590007570740D0A0000007573622072657365C2
:1015A000740D0A0072657365742063616C6C62610E
:1015B000636B0D0A00000000D0F8040404F06AB860
:1015C000D0F8040404F077B82DE9F0418AB004465D
:1015D000002C05D0266894F8BD03002520B108E052
:1015E00001200AB0BDE8F08184F8BC53204600F029
:1015F0005DF8032084F8BD03F06BC00500D42561BD
:10160000206804F0E3FF04F11001282288466846B0
:10161000FFF748F894E80F0004F044FE022718B1E1
:1016200084F8BD730120DCE70021206805F051FA41
:10163000002101260DE0C1EBC10004EB80003C302D
:1016400046700170C180C5708560C5604561491CE8
:10165000C9B260688842EED800210DE0C1EBC1003C
:1016600004EB800000F5FE7045700170C570856068
:10167000C5604561491CC9B260688842EED828221D
:1016800041466846FFF70EF894E80F0004F0E6FEC6
:1016900018B184F8BD730120A3E784F8385084F8AA
:1016A000BD63206804F0CCFE00209AE710B586B038
:1016B0000446142101A8FFF727F82068B0F1A04FD5
:1016C0002FD11948016841F08001016000211648BE
:1016D0001030026842F480420260006800F48040EA
:1016E00000901148001F026842F001020260006889
:1016F00000F0010000904FF4C050019002200290D1
:101700000391032004900A20059001A90748FFF7E0
:101710001FFA032200214320FFF76CFB4320FFF751
:101720005CFB06B010BD00003438024000000240EF
:1017300070B504460125E06800280FD0022812D0B9
:101740000BA0FEF7A3FED4F8040403F0D6FF29464D
:10175000D4F80404BDE8704004F018B80BA0FEF7FC
:1017600095FE0025EFE710A0FEF790FEEBE70000E6
:1017700055534220446576696365204C6962726105
:10178000727920205B46533F5D0D0A00555342207D
:10179000446576696365204C6962726172792020C4
:1017A0005B48535D0D0A000055534220446576693D
:1017B0006365204C69627261727920205B46535DDB
:1017C0000D0A000010B5044604A0FEF75FFED4F831
:1017D0000404BDE8104003F0BEBF00004465766914
:1017E000636520526573756D65640D0A0000000025
:1017F000D0F8040403F0B9BF10B5044694F8BC0354
:1018000001280BD0012084F8BC0384F8381020682C
:1018100005F077F9002084F8BC0310BD022010BD4C
:10182000D0F8042400F57171104603F0D1BF10B553
:101830000446206894F8BC13012906D0012184F8DD
:10184000BC13A16A012902D008E0022010BDA169E1
:10185000012903D0816B41F480318163206805F058
:10186000C1F8206804F0DEFD002084F8BC0310BD40
:1018700010B50446054A0021117005A0FEF706FECA
:10188000D4F80404BDE8104004F02AB86A0100202E
:1018900044657669636520496E2073757370656E63
:1018A00064206D6F64652E0D0A0000002DE9F0477D
:1018B00004460D46002C13D0DFF82891D9F800001B
:1018C000EFB200F00700A8420CD289F80070D9F8F6
:1018D000000000F00700A84204D00120BDE8F08716
:1018E0000120FBE72068404E810712D5400703D551
:1018F000306840F4E05030602078000703D530684D
:1019000040F4604030603068A16820F0F000084387
:1019100030602078C00731D0334960680839012829
:1019200008D002280BD0032809D0096889070BD4F6
:101930000120D3E70968890306D40120CEE70968AE
:10194000890101D40120C9E7316821F00301014375
:101950003160FFF7FBF9804641F2883A07E0FFF774
:10196000F5F9A0EB0800504501D90320B6E730682F
:10197000616800F00C00B0EB810FF0D1D9F80000E5
:1019800000F00700A84209D989F80070D9F80000D2
:1019900000F00700A84201D001209FE7207840070F
:1019A00005D53068E16820F4E050084330602078C5
:1019B000000706D53068216920F4604040EAC10084
:1019C000306000F03FF83168084AC1F30311515C00
:1019D000C8400749086007480068FFF7DBF90020A6
:1019E0007CE70000003C024008380240667A0008AC
:1019F000000000201400002001480068704700002B
:101A00000000002000B5FFF7F7FF04490968044A09
:101A1000C1F38221515CC84000BD0000083802407B
:101A2000767A000800B5FFF7E7FF04490968044A21
:101A3000C1F34231515CC84000BD0000083802408B
:101A4000767A000810B51748006810F00C011648A7
:101A500016D04310042912D0082911D1114C241F8B
:101A6000216801F03F02216849020AD52068C0F3CD
:101A70008810A0FB03010023FEF791FC09E0184643
:101A800010BD21680023C1F38811A1FB0001FEF7FE
:101A900086FC2168C1F30141491C4900B0FBF1F00B
:101AA00010BD0000083802400024F4002DE9F84F72
:101AB0000446002C13D02078DFF8A083C007A8F1DB
:101AC000040556D008F104000168C1F38101012921
:101AD0000CD00068C0F38100022803D00DE0012083
:101AE000BDE8F88FD8F80000400206D528688003CA
:101AF0003FD5606870BB0120F2E76068B0F5803FB9
:101B000010D0B0F5A02F12D0286820F480302860C3
:101B1000286820F4802028606068E0B1FFF716F99B
:101B2000064614E0286840F480302860F4E728680E
:101B300040F480202860286840F480302860EBE77B
:101B4000FFF704F9801B642801D90320C8E728683F
:101B50008003F5D50DE0FFF7F9F8064606E0FFF73C
:101B6000F5F8801B642801D90320B9E728688003B1
:101B7000F5D42078BA4F80074FF0000948D5B74810
:101B8000001D016811F00C0F08D00068C0F381003F
:101B9000022813D1D8F8000040020FD4286880072B
:101BA00004D5E068012801D0012099E7286821695F
:101BB00020F0F80040EAC100286029E0E068B8B1F0
:101BC00001203860FFF7C2F8064606E0FFF7BEF8CE
:101BD000801B022801D9032082E728688007F5D5F9
:101BE0002868216920F0F80040EAC10028600FE071
:101BF000C7F80090FFF7AAF8064606E0FFF7A6F838
:101C0000801B022801D903206AE728688007F5D4E1
:101C10002078000729D5DFF844A2924861690AF1CB
:101C2000700A89B101210160FFF790F8064606E0CD
:101C3000FFF78CF8801B022801D9032050E7DAF85F
:101C400000008007F4D510E0C0F80090FFF77EF8A0
:101C5000064606E0FFF77AF8801B022801D9032028
:101C60003EE7DAF800008007F4D42078400778D502
:101C70004FF0000A79483C300068C0000BD4774828
:101C80003C30016841F080510160006800F08050F4
:101C900000904FF0010ADFF8D0B1DBF80000C0057A
:101CA00014D4DBF8000040F48070CBF80000FFF79C
:101CB0004DF8064606E0FFF749F8801B022801D9D7
:101CC00003200DE7DBF80000C005F4D5634EA068E3
:101CD0006C3601280FD0052812D0306820F00100A2
:101CE0003060306820F004003060A068F8B1FFF781
:101CF0002DF8834617E0306840F001003060F4E7CB
:101D0000306840F004003060306840F0010030601E
:101D1000EBE7FFF71BF8A0EB0B0141F288308142A3
:101D200001D90320DCE630688007F2D510E0FFF728
:101D30000DF8834609E0FFF709F8A0EB0B0141F22B
:101D40008830814201D90320CAE630688007F2D486
:101D5000BAF1010F05D141483C30016821F08051B2
:101D60000160A069C0B33D49091D09684FF0FF3605
:101D7000C1F38101022946D0022805D0C7F860903E
:101D8000FEF7E4FF04463AE0C7F86090FEF7DEFF96
:101D9000814607E0FEF7DAFFA0EB0900022801D92F
:101DA00003209DE628688001F4D4D4E907010843A4
:101DB000616AA26A890106EB520241EA02410843C4
:101DC00094F82C1040EA0160C8F800000120386641
:101DD000FEF7BCFF044607E03DE0FEF7B7FF001B3F
:101DE000022801D903207BE628688001F5D532E07E
:101DF000FEF7ACFF001B022801D9032070E628681B
:101E00008001F5D427E0012823D0D8F80000E2694A
:101E100000F4800191421AD1226A00F03F01914200
:101E200015D147F6C071626A0140B1EB821F0ED135
:101E3000A26A00F4403106EB5202B1EB024F06D128
:101E400094F82C1000F07060B0EB016F03D001200B
:101E500046E6012044E6002042E600000438024045
:101E600000004742800E4742007000402DE9F041DB
:101E70008AB004460D460026032084F83400606CC6
:101E800003281ED0B5F5805F08D0B5F5006F0AD0E5
:101E900085B1A06B40F00060A06316E0A06B40F03D
:101EA0008050A06311E0204602F0ECFDA16B0143DD
:101EB000A1630AE0204602F0BCFDA16B0143A163CF
:101EC00003E0A06B40F08050A063A06B174F4FF071
:101ED000010828B12068876384F83480012613E064
:101EE00060680490A0680590E068069007956069B6
:101EF0000890A069099007A807C88DE8070004A901
:101F000020680EC902F0ECF84FF40071206802F06E
:101F10004FF928B121688F63A16B0143A1630126AA
:101F200084F834800AB03046BDE8F081FF054000F7
:101F3000F0B550F8642F920F0A700268C2F3836202
:101F40004A700268C2F301628A700268120CCA7099
:101F50000288120A0A7102784A714268120DCA8018
:101F60004268C2F303420A728288C2F3C0324A72E4
:101F70008288C2F380328A728288C2F34032CA7287
:101F80008288C2F300320A7300264E7350F8203C58
:101F9000643801244FF40075002B0CD0012B3AD08B
:101FA000026847499163816B41F08051816380F8F9
:101FB00034400120F0BDB0F86820C36E9205120DC8
:101FC00042EA93720A61C26EC2F3C2620A75C26EBD
:101FD000C2F302624A75C26EC2F342528A75C26E81
:101FE000C2F38242CA75C26EC2F3C2320A760B696C
:101FF0005B1C43650A7E02F00702921C9340436516
:102000000A7A02F00F0704FA07F28265520A534374
:10201000C36505660EE090F86820C36E9206920ACA
:1020200042EA13420A610A69521C93024365C3657E
:102030008565056630F86C2FC2F3803201F8192FE0
:102040000288C2F3C6124A70027802F07F028A70D8
:102050004268D20FCA704268C2F341720A71426884
:10206000C2F382624A714268C2F383528A71426843
:10207000C2F34052CA710E724268C2F300424A7201
:102080008288C2F3C0328A728288C2F38032CA72F6
:102090008288C2F340320A738288C2F300324A73E4
:1020A0008288C2F381228A738288C2F30122CA73B2
:1020B0000079C0F3460008744C740020F0BD0000A5
:1020C000FF054000426C0A60826C4A60C26C8A6004
:1020D000026DCA60426D0A61826D4A61C26D8A6199
:1020E000006EC8610020704738B50446002000909B
:1020F0006946204602F086FC10B1A16B0143A16342
:102100000098C0F3432038BD70B50446002C04D0BD
:1021100094F83400002510B105E0012070BD25774A
:10212000204600F05DF8032084F83400204600F0DB
:102130000BF808B1012070BDA5632563012084F868
:102140003400002070BD000070B58AB00446002540
:1021500029460495059106910791089176200990EA
:102160000091CDE901100B460A46206801F0B8FF46
:1021700010B101200AB070BD174E3560206801F023
:10218000C4FF01253560204602F0E6FB30B184F83B
:102190003450A16B0143A1630120EBE7204602F01C
:1021A00066FB30B184F83450A16B0143A163012078
:1021B000E0E74FF40071206801F0FAFF48B12268AF
:1021C00006499163A16B0143A16384F83450012057
:1021D000D0E70020CEE70000A0802542FF054000A8
:1021E00010B586B03448016841F4006101600068B0
:1021F00000F40060009030481438016841F0040198
:102200000160016801F004010091016841F00401DE
:102210000160016801F004010091016841F00401CE
:102220000160016801F004010091016841F00401BE
:102230000160016801F004010091016841F00401AE
:102240000160016801F004010091016841F008019A
:102250000160006800F0080000904FF48070019069
:10226000022002900121039104900C200590134C50
:1022700001A92046FEF76CFC6115019101A92046D9
:10228000FEF766FC2115019101A92046FEF760FCCE
:10229000E114019101A92046FEF75AFCA114019115
:1022A00001A92046FEF754FC0420019001A904482E
:1022B000FEF74EFC06B010BD443802400008024054
:1022C000000C02402DE9FF4F87B004460D4616462C
:1022D000DDF85080FEF73AFD82465DB194F8340097
:1022E00001280DD0A06B40F00050A06301200BB07E
:1022F000BDE8F08FA06B40F00060A0630120F6E71E
:102300004FF0000BC4F838B00A98E16D30448842B1
:1023100005D9A06B40F00070A0630120E7E703201F
:1023200084F834002068C0F82CB0606C012800D01C
:1023300076024FF0FF3001900A9840020290902000
:10234000039002270497CDF814B04FF00109CDF89F
:10235000189001A9206801F0A7FE0A98012805D964
:1023600027633146206801F081FF05E0C4F8309012
:102370003146206801F093FF58B1226859499163B2
:10238000A16B0143A16384F83490C4F830B00120FC
:10239000ADE7029E1CE0406B000410D57EB1002723
:1023A000206801F0BAFE2870010A6970010CA9705A
:1023B000000EE8702D1D361F7F1C082FF0D3FEF78E
:1023C000C5FCA0EB0A00404521D2B8F1000F1ED099
:1023D0002068416B40F22A321142DCD02168496BFF
:1023E000C90521D50A9901291ED9616C03291BD081
:1023F00001F0FCFFC0B122683A499163A16B01432F
:10240000A16384F83490C4F830B001206FE72168EC
:1024100034488863A06B40F00040A06384F8349097
:10242000C4F830B0032062E72068416B09070BD580
:102430002C498163A06B40F00800A06384F83490BD
:10244000C4F830B0012052E7416B89070BD525490C
:102450008163A06B40F00200A06384F83490C4F85C
:1024600030B0012043E7416B89061FD51D498163C8
:10247000A06B40F02000A06384F83490C4F830B022
:10248000012034E701F049FE2870010A6970010C4F
:10249000A970000EE8702D1D361FFEF757FCA0EB4B
:1024A0000A00404510D2B8F1000F0DD02068416BF2
:1024B000890201D5002EE5D1216840F23A508863A7
:1024C00084F83490002012E7216806488863A06BE6
:1024D00040F00040A06384F83490C4F830B001208C
:1024E00005E70000FF0540002DE9F04F89B00446E4
:1024F0000E4615469B46FEF729FC02905EB194F805
:10250000340001280DD0A06B40F00050A0630120E2
:1025100009B0BDE8F08FA06B40F00060A06301201F
:10252000F6E74FF0000AC4F838A0E16D05EB0B00A8
:10253000884205D9A06B40F00070A0630120E7E756
:10254000032084F834002068C0F82CA0606C0128B7
:1025500000D06D024FF0FF3003904FEA4B20049003
:1025600090200590CDF818A0CDF81CA04FF00109DF
:10257000CDF8209003A9206801F096FDBBF1010F72
:1025800007D9202020632946206801F049FF8046B2
:1025900006E0102020632946206801F05AFF80469B
:1025A000B8F1000F0CD0216849488863A06B40EA5D
:1025B0000800A06384F83490C4F830A00120A7E795
:1025C000049F24E0406B400418D5BFB1002530784B
:1025D0000190717840EA01200190B17840EA014011
:1025E0000190F178361D40EA016001903F1F01A97A
:1025F000206801F0A5FD6D1C082DE8D3FEF7A6FBB1
:102600000299411A1298814220D21298F0B12068A2
:10261000416B40F21A321142D4D02168496BC9058E
:1026200021D5BBF1010F1ED9616C03291BD001F02C
:10263000DDFEC0B1226826499163A16B0143A1630D
:1026400084F83490C4F830A0012061E72168204864
:102650008863A06B40EA0800A06384F83490C4F853
:1026600030A0032054E72068416B09070BD51849B7
:102670008163A06B40F00800A06384F83490C4F834
:1026800030A0012044E7416B89070BD510498163D5
:10269000A06B40F00200A06384F83490C4F830A02E
:1026A000012035E7416BC9060BD509498163A06B51
:1026B00040F01000A06384F83490C4F830A00120EA
:1026C00026E740F23A51816384F8349000201FE7F6
:1026D000FF05400070B50446002C0AD0606A002552
:1026E00048B1256165614FF4005694F8510040B13E
:1026F0000CE0012070BD6068B0F5827FF3D0E56129
:10270000F1E784F85050204600F04CF8022084F89D
:1027100051002068016821F040010160A0882189F2
:1027200000F4827001F404410843A18901F40061BE
:102730000843217C01F002010843217D01F00101E1
:102740000843218B01F400710843217F01F0380117
:10275000084394F8201001F080010843218D01F412
:102760000051084321680860A069042101EA104073
:1027700094F8241001F01001084321684860A06A11
:10278000B04203D1A08D216880B208612068C16980
:1027900021F40061C1616565012084F851000020C9
:1027A00070BD000010B586B000681C49884232D167
:1027B0001B48016841F002010160016801F002015B
:1027C0000091016841F002010160016801F002011D
:1027D0000091016841F002010160006800F0020010
:1027E00000900820019002200290012103910490A2
:1027F000052005900B4C01A92046FEF7A9F91021F0
:10280000019101A92046FEF7A3F92021019101A918
:102810002046FEF79DF906B010BD000000300140D3
:1028200030380240000402402DE9FF4F83B00446D7
:10283000109E8A4698464FF0000BCDF808B001254F
:10284000002794F8500001280ED0012084F8500091
:10285000FEF77CFA814694F85100616801280DD09A
:10286000B1F5827F08D103E0022007B0BDE8F08F08
:10287000A16809B9042801D002270CE1BAF1000FC0
:102880003FD00598E0B35FEA08003AD094F85100D1
:10289000042802D0052084F85100C4F854B00598EB
:1028A000A063A4F83E80A4F83C80C4F830A0A4F84B
:1028B0003680A4F83480C4F840B0C4F844B0A06AAC
:1028C0004FF4005A504509D12068016821F40051A5
:1028D00001602068016841F40051016020680168CE
:1028E000490603D4016841F040010160E068B0F599
:1028F000006F08D06068E8B3B8F1010F52D091E0E2
:10290000FFE70127C7E0606810B1B8F1010F42D1BD
:10291000206B21680088C860206B801C2063E08EDB
:10292000401EE08637E020688168890717D5E18E70
:10293000A9B1012D13D1216B0988C160206B801CC6
:102940002063E08E401EE0860025E08E38B9A06A44
:10295000504504D12068016841F48051016020682D
:102960008168C9070DD0E18F59B1C068A16B08809B
:10297000A06B00E016E0801CA063E08F401EE087A3
:102980000125FEF7E3F9A0EB0900B04203D3701C68
:1029900001D003277FE0E08E0028C4D1E08F00281B
:1029A000C1D145E0206B216800780873206B401C82
:1029B0002063E08E401EE08634E02068816889074D
:1029C00017D5E18EA9B1012D13D1216B09780173BF
:1029D000206B401C2063E08E401EE0860025E08EC8
:1029E00038B9A06A504504D12068016841F480518B
:1029F000016020688168C9070BD0E18F49B1C068C8
:102A0000A16B0870A06B401CA063E08F401EE087A4
:102A10000125FEF79BF9A0EB0900B04201D3701C21
:102A200018D1BEB1E08E0028C7D1E08F0028C4D1F4
:102A3000A06A504513D10122334611462046CDF8F5
:102A4000009002F077F838B1606D40F002006065E8
:102A5000032720E003271EE02068C068029020685A
:102A60008168C90607D5616D41F0020161654FF6C5
:102A7000EF71816001274A463146204602F02CF86A
:102A800018B101272020606505E0A06818B920680A
:102A9000C16880680190012084F8510084F850B02A
:102AA0003846E2E670B504460E461546002C03D0C3
:102AB00094F8490010B107E0012070BD002084F8AF
:102AC0004800204600F01AF804F108012068FDF7DC
:102AD0007DFF3146A2682068FDF7A2FFD4E901021C
:102AE0002946236BFDF752FFA168206850F821208A
:102AF00042F0010240F82120002070BD70474FF0E5
:102B0000E021042804D0086920F00400086170471F
:102B1000086940F004000861704710B5401EB0F12C
:102B2000807F01D3012010BD4FF0E02460610F21B0
:102B3000601704F08BF80020A061072020610020BE
:102B400010BD70477047704770B504462068016932
:102B50004FF00005C943890716D4C168C9438907E6
:102B600012D4E91E01610120207720688069800766
:102B700003D02046FFF7E7FF05E0204600F09BF872
:102B8000204600F099F8257720680169C943490774
:102B900018D4C168C943490714D46FF00401016116
:102BA000022020772068806910F4407F03D02046FF
:102BB000FFF7C9FF05E0204600F07DF8204600F051
:102BC0007BF8257720680169C943090717D4C168D4
:102BD000C943090713D46FF008010161042020776D
:102BE0002068C069800703D02046FFF7ACFF05E0EE
:102BF000204600F060F8204600F05EF82577206857
:102C00000169C943C90618D4C168C943C90614D4A7
:102C10006FF010010161082020772068C06910F46E
:102C2000407F03D02046FFF78EFF05E0204600F0EE
:102C300042F8204600F040F8257720680169C94332
:102C4000C90708D1C168C943C90704D1891E0161F8
:102C5000204600F033F820680169C943090609D409
:102C6000C168C943090605D46FF08001016120469F
:102C7000FFF767FF20680169C943490609D4C168A5
:102C8000C943490605D46FF040010161204600F0B8
:102C900023F820680169C94389060BD4C168C94378
:102CA000890607D46FF0200101612046BDE870401D
:102CB000FFF748BF70BD7047704700000449884265
:102CC00004D14FF480610348FEF72AB87047000032
:102CD0000806002000140240704770477047014604
:102CE00011F83D0F4978084370470000F8B50446D5
:102CF00022681068D168536900F00F05002D08D1D3
:102D0000860606D58E0604D52046BDE8F84002F0BA
:102D1000B0B80026002D60D003F0010501F49077D3
:102D20002F435AD0C20705D0CA0503D5226C42F002
:102D300001022264420705D5DA0703D0226C42F073
:102D400002022264820705D5DA0703D0226C42F022
:102D500004022264020707D501F020022A4303D0AF
:102D6000226C42F008022264226C002A2BD08006DA
:102D700004D5880602D5204602F07BF82068406919
:102D8000C0F38010216C090700D408B3204602F07C
:102D90004BF820684169490616D5416921F0400188
:102DA0004161A06B60B144490165A06BFDF7BBFEBA
:102DB000002808D0A06B016D01B0BDE8F0400847C5
:102DC0002046FFF78BFFF8BD2046FFF787FFF8BDD1
:102DD0002046FFF783FF2664F8BD236B012B58D1F3
:102DE000C30656D5CB0654D510685068009050697C
:102DF0004FF0200340062ED5A16B0868406880B2D2
:102E00000028E9D0A58D8542E6D9E085C869B0F5EE
:102E1000807F18D0D06820F48070D060206841692D
:102E200021F0010141612068416921F040014161C7
:102E300084F83E3026632068C16821F01001C1602B
:102E4000A06BFDF729FEA08DE18D401A81B22046CE
:102E5000FFF743FFF8BDA08DE18D401A81B2E08DF0
:102E60000028F7D00029F5D0D06820F49070D06009
:102E70002068426922F00102426184F83E302663F4
:102E80002068C26822F01002C2602046FFF725FFCA
:102E9000F8BD020606D50A0604D52046BDE8F8406E
:102EA00002F0E5B84006F3D54806F1D52046BDE866
:102EB000F84001F0D1BF0000194E000870B504467B
:102EC000002C04D094F83D00002510B106E001204C
:102ED00070BD84F83C50204600F022F8242084F88D
:102EE0003D002068C16821F40051C160204602F015
:102EF00019F82068016921F4904101612068416955
:102F000021F02A0141612068C16841F40051C1608B
:102F10002564202084F83D0084F83E00002070BD28
:102F200030B587B000681F49884238D11E48016813
:102F300041F010010160006800F0100001901A4893
:102F40001438016841F001010160016801F00101DC
:102F50000191016841F001010160006800F0010089
:102F600001904FF40070029002200390012104911F
:102F70000590072406940D4D02A92846FDF7E8FDAB
:102F800029150291069402A92846FDF7E1FD2520A6
:102F9000FDF723FF032211462520FDF72BFF07B085
:102FA00030BD0000001001404438024000000240E3
:102FB00090F83E30202B01D00220704759B152B119
:102FC00090F83C30012B08D0012380F83C300023DE
:102FD000036302F031B801207047022070470000FF
:102FE00030B400681649884228D1164A5088010436
:102FF00019D41146440409784FF0000307D50A2973
:1030000001D053800FE040F4004050800BE00D29C8
:1030100010D00D4DC0F30D042955401C80B25080D6
:10302000C72800D953800848012230BC0549C83060
:10303000FFF7BEBF40F480405080F4E730BC7047DB
:103040000010014008000020AC0400207047FEE79B
:10305000F0B500230A2530263727002412E0B5EB0F
:10306000107F04D906EB107C01F813C003E007EBD6
:10307000107C01F813C0000101EB430C8CF80140F7
:103080005B1CDBB29342EAD3F0BD70B50546D5F8C0
:10309000BC42002C1CD004F50041087F38B9886977
:1030A00028B1607A18B90121284602F00BFC812171
:1030B000284602F007FC607A022809D181212846BF
:1030C00002F000FC2846BDE87040012102F0FABB86
:1030D00070BD000070B50646D6F8BC42002C4FD03B
:1030E00004F5004568696863A869A8630121304652
:1030F00002F091FA1F280AD122492869884206D194
:10310000697F022903D8A87F08B110280CD9697FEC
:1031100020230522304600F0EAFD0220607230468E
:10312000BDE87040FFF7B1BF48F21F0022183046DB
:1031300000F0A4FA00280DDA207A052804D03046E1
:10314000BDE87040FFF7A1BF3046BDE870400121E7
:1031500000F0C8B8217A022912D0012910D0032921
:103160000ED0E26832B104F110013046BDE8704083
:1031700000F0DCB83046BDE87040002100F0B2B885
:1031800070BD00005553424310B50446D4F8BC222C
:10319000002A16D0527A022A09D0080611D5012A2F
:1031A0000FD02046BDE81040012100F09BB88121DE
:1031B000204602F087FB2046BDE81040012102F0C6
:1031C00081BB10BD10B50446D4F8BC22002A1CD027
:1031D000117A022909D0032901D0042915D12046EA
:1031E000BDE81040002100F07DB848F21D00815C70
:1031F000801C0244204600F041FA002805DA2046EF
:10320000BDE81040012100F06DB810BD10B50446B6
:10321000D4F8BC22002A18D0117A89B1012914D11E
:1032200048F21D00815C801C0244204600F026FA12
:1032300000280ADA2046BDE81040012100F052B80B
:103240002046BDE81040FFF745BF10BDD0F8BC02D6
:10325000002801D000210172704770B50546D5F8ED
:10326000BC42002C1FD000212172617204F5004085
:103270006030417001708170D5F8C0020168002093
:1032800088470121284602F0BFF98121284602F033
:10329000BBF948F2100022182846BDE870401F23F1
:1032A000012102F023BA70BD70B50546D5F8BC42C5
:1032B000002C15D000202072012060728121284648
:1032C00002F0F0F80121284602F0ECF848F2100074
:1032D00022182846BDE870401F23012102F006BADB
:1032E00070BD000070B50546D5F8BC42002C19D061
:1032F00004F500420C48106382F83C100020207254
:1033000048F2300022180D238121284602F0F0FAFD
:1033100048F2100022182846BDE870401F23012102
:1033200002F0E4B970BD000055534253F0B41546A5
:10333000D0F8BC4204F500429369AB4200D32B465F
:10334000002C0CD0966B751B9563002582F83C50C1
:1033500004222272F0BC0A46812102F0C9BAF0BCF4
:103360007047FEE7704700000148FDF70BBF000003
:1033700040C3012070B504462068056C00EB411085
:10338000D0F8081B0C4EB54205D9090403D54FF4FB
:103390000041C0F8081B2046FEF742FAB54208D9A2
:1033A0002069012805D104F571720121206803F01C
:1033B0009DF9002070BD00000A30544F2DE9F04106
:1033C00004460D462668316C06EB4510D0F8083BE4
:1033D000D4F810804FF400474FF0200C04F57172C0
:1033E000B8F1010F08D0DFF8B080414545D119048C
:1033F0003AD5C0F8087B4CE0284E5FEA037806D542
:10340000B14246D9190444D5C0F8087B41E05FEACF
:10341000836802D5C0F808CB3BE013F0280F38D101
:10342000B14204D9190402D5C0F8087B31E0C5EBDC
:10343000C50104EB810101F50171D0F8100B0B6897
:10344000C0F31200181A086148681844486035B97A
:10345000D4F8100218B90121206803F047F9E9B245
:103460002046FDF746FD14E0990601D5C0F808CBCB
:10347000E9B22046FDF73DFD0BE035B9D4F8100266
:1034800018B90021304603F031F9E9B22046FDF7C2
:1034900030FD0020BDE8F0810A31544F0A30544F0E
:1034A0002DE9F84F80460E46D8F80070C6EBC600EE
:1034B00008EB80043C34D4E90510884202D901208D
:1034C000BDE8F88F081AA168814200D20846C01CE6
:1034D0004FEA900A07EB461916E0151AA268AA42AD
:1034E00000D21546E81C4FEA900A98F810000090A8
:1034F000ABB2F2B23846E16803F094FBE0682844CE
:10350000E060A0692844A061D9F8180980B250454C
:1035100005D3D4E90520904201D2002ADDD1D4E9B7
:103520000501884208D806F00F0101208840D7F82D
:1035300034188143C7F834180020C1E7D0F8BC0222
:10354000002809D0127900214AB148F26202012311
:103550001354C160002070474FF0FF30704748F2AD
:1035600062021154F5E730B5D0F8BC424FF0FF3598
:10357000002C0DD0134404EB810202F50042926E40
:10358000934207D92123052200F0B1FB284630BD24
:10359000284630BD002030BD70B504461346D4F82F
:1035A000BC024FF0FF35002812D000F500429669AA
:1035B00086B15E78F6071FD0997899B1802916D028
:1035C000517F24230522204600F091FB284670BD40
:1035D000284670BD517F20230522204600F087FB3E
:1035E000284670BD06220D4900F018FC13E00822A1
:1035F0000B4900F013FC0EE0D4F8C02201EBC1012E
:10360000D26902EB81010A79521D1B79934200D8DD
:103610001A4600F003FC002070BD00002A010020C3
:103620003001002010B51146D0F8BC021B22002842
:1036300008D0097A1B2900D80A46044900F0EEFB9D
:10364000002010BD4FF0FF3010BD00004F010020E2
:1036500010B51146D0F8BC021722002808D009790D
:10366000172900D80A46044900F0D8FB002010BDF5
:103670004FF0FF3010BD00003801002070B5D0F8C9
:10368000BC424FF0FF35002C0CD01378252B4AD0CC
:1036900011DC1A2B3BD007DC2BB3032B27D0122BCA
:1036A00019D128E0284670BD1B2B28D01E2B2AD00C
:1036B000232B10D133E05A2B2DD006DC282B3AD007
:1036C0002A2B40D02F2B06D145E09E2B2FD0A82BA4
:1036D00035D0AA2B3BD02023052200F008FB022086
:1036E0006072284670BDBDE8704000F05BBBBDE86D
:1036F000704000F0BABABDE87040FFF74DBFBDE8BA
:10370000704000F01CBBBDE87040FFF717BFBDE87C
:103710007040FFF79DBFBDE87040FFF783BFBDE875
:10372000704000F060BABDE8704000F0AEB9BDE88E
:10373000704000F0F2B9BDE8704000F0C0B8BDE8DC
:10374000704000F02CB9BDE8704000F097BBBDE8B8
:10375000704000F018BCBDE8704000F070BB2DE96F
:10376000F04707468846D7F8BC4204F50045B5F84F
:103770006400AE6F46434FF0FF39002C1CD04FF46D
:1037800000418E4200D30E46B6FBF0F083B2D7F86C
:10379000C00204F110012A6FD0F810C08A464046DA
:1037A000E04700280ADA112304224146384600F097
:1037B0009EFA4846BDE8F0874846FBE73346524646
:1037C0008121384602F094F8B5F8640048F270039D
:1037D000B6FBF0F11B5948F27407C9183F5948F27B
:1037E000700347F100021951191D0A51B6FBF0F0A0
:1037F000A96F081AA867A96B891BA96308B90320D8
:1038000020720020D6E72DE9F05F80468A46D8F87E
:10381000BC5205F50044B4F86400A66F46434FF06F
:10382000FF3B002D1CD04FF40047BE4200D33E4664
:10383000B6FBF0F083B2D8F8C00205F11001226F98
:10384000D0F814C089465046E04700280ADA03231E
:1038500004225146404600F04AFA5846BDE8F09F1F
:103860005846FBE7B4F8640048F27003B6FBF0F288
:103870005B5948F2740CD21848F270035CF805C02A
:103880005A5105F500454CF100016967B6FBF0F1AE
:10389000A26F531AA367A16B891BA16353B1434362
:1038A000BB4200D33B464A460121404601F01EFF81
:1038B0000020D3E700214046FFF714FDF8E72DE98B
:1038C000F047074689461646D7F8BC524FF0FF38F6
:1038D000002D02D0287A18B158E04046BDE8F087A4
:1038E00005F50044207F000607D4617F20230522D0
:1038F000384600F0FCF94046F0E794F862000228F0
:103900000DD0D7F8C00281684846884778B13A237D
:1039100002224946384600F0EAF94046DEE73A23FB
:1039200002224946384600F0E2F94046D6E770796F
:10393000B178327940EA0160F178090441EA022164
:10394000084348F2700200215051101D4151307A55
:10395000F17940EA0123A36749463846226FFFF711
:1039600002FE002801DA4046B8E7B4F86410A06F00
:103970004843A169884207D0617F20230522384649
:1039800000F0B5F94046A9E7022028724FF4004044
:10399000E86049463846BDE8F047FFF7E0BE2DE94C
:1039A000F047074689461546D7F8BC624FF0FF3806
:1039B000002E02D0307A18B15EE04046BDE8F087B4
:1039C00006F50044207F000607D4617F20230522EE
:1039D000384600F08CF94046F0E794F8620002287F
:1039E0000DD0D7F8C00281684846884778B13A239D
:1039F00002224946384600F07AF94046DEE73A238B
:103A000002224946384600F072F94046D6E7687906
:103A1000A9782A7940EA0160E978090441EA02219B
:103A2000084348F2700200219051101D8151687ABC
:103A3000A97940EA0163E879297A000440EA012083
:103A40000343A36749463846226FFFF78CFD0028E1
:103A500001DA4046B2E7B4F86410A06F4843A169A8
:103A6000884207D0617F20230522384600F03FF9C5
:103A70004046A3E7022030724FF40040F060494610
:103A80003846BDE8F047FFF76ABE2DE9F04106462B
:103A90008846D6F8BC424FF0FF37002C0ED004EB1E
:103AA000880548F268002918D6F8C002436848F231
:103AB000640022184046984738BB02E03846BDE80B
:103AC000F08104F5004090F8621002291DD005F540
:103AD000004555F8681F491E090E21742968491EC2
:103AE000090C61742988491E090AA1742978491EA4
:103AF000E174002121756175B0F86400010AA175B7
:103B0000E0750820E0600020D9E73A230222414610
:103B1000304600F0ECF83846D1E72DE9F04707468B
:103B200089461546D7F8BC424FF0FF38002C0ED01E
:103B300004EB890648F268003118D7F8C0024368E0
:103B400048F26400221848469847B8B902E0404657
:103B5000BDE8F08704F5004292F8620002280DD01B
:103B6000687BA97A2B7B40EA0160E97A090441EA83
:103B700003210843E060002000210BE03A230222E9
:103B80004946384600F0B3F84046E1E72318197477
:103B9000401CC0B2E3688342F8D806F5004656F8E8
:103BA000680F401E000E20753068401E000C6075C6
:103BB0003088401E000AA0753078401EE0752176DE
:103BC0006176B2F86400010AA176E076687BA97A92
:103BD0002A7B40EA0160E97A090441EA02210843AC
:103BE000E0600020B4E72DE9FC4105460F46D5F81A
:103BF000BC424FF0FF36002C08D0D5F8C00201AA15
:103C0000694643683846984738BB02E03046BDE80D
:103C1000FC8148F26200005D02281ED000200021D5
:103C200022181174401C80B20C28F9D30820E074CB
:103C30000098401E020E2275020C6275020AA275DF
:103C4000E075022020766176BDF80400010AA176B5
:103C5000E0760C20E0600020D9E73A2302223946C2
:103C6000284600F044F83046D1E770B5D0F8BC12D1
:103C70004FF0FF34002927D001F500439D692DB393
:103C8000002000240D182C74401CC0B21228F9D357
:103C9000702008740C20C87593F8600093F8615088
:103CA000A8421CD001EBC00505F5004515F8406F92
:103CB0008E742E790E776D794D77401CC0B283F8E3
:103CC0006000042809D00AE0204670BD597F2023F7
:103CD000052200F00CF8204670BD83F860401220E9
:103CE000C8601079122800D8C860002070BD10B5D7
:103CF000D0F8BC02002821D000F5004111F8614F36
:103D000000EBC40404F5004484F840200A7800EB7A
:103D1000C20202F5004282F844300B78002200EB28
:103D2000C30000F5004080F845200878401CC0B270
:103D300001F86109042801D181F8612010BD70B536
:103D4000D0F8BC324FF0FF35002B06D003F500440D
:103D500094F86260012E02D006E0284670BD167904
:103D600006F00306022E0BD01179002201F00300A9
:103D700001280BD002280CD0C84380070DD00EE0DC
:103D800024230522FFF7B3FF284670BD84F8622084
:103D900005E0022084F8620001E084F86220DA6025
:103DA000002070BD2DE9F04105460F46D5F8BC4214
:103DB0004FF0FF36002C0CD004F50040816951B162
:103DC000417F202305222846FFF791FF3046BDE8BA
:103DD000F0813046FBE790F862004FF005080228BA
:103DE0000FD0D5F8C00282683846904798B13A2380
:103DF000022239462846FFF77AFF84F808803046C9
:103E0000E5E73A23022239462846FFF770FF84F897
:103E100008803046DBE70020E060D8E710B50028D6
:103E200001D0C26007E04FF0FF3010BD521E92B2C9
:103E300084188B5C2374002AF8D1002010BD70B563
:103E4000D0F8BC424FF0FF35002C08D052789207D2
:103E500007D524230522FFF74AFF284670BD2846D0
:103E600070BD04F50042936F126FFFF77CFB0028D2
:103E700001DA284670BD0020E06070BD2DE9F047F2
:103E8000074689461646D7F8BC524FF0FF38002D3A
:103E900007D0287A40B149463846BDE8F047FFF7D9
:103EA000B2BC4046BDE8F08705F50044A06950B1BA
:103EB000207F00060FD5617F202305223846FFF7BB
:103EC00016FF4046EEE7617F202305223846FFF7C4
:103ED0000EFF4046E6E7D7F8C002816848468847AB
:103EE00038B13A23022249463846FFF700FF4046E0
:103EF000D8E7D7F8C002C1684846884738B12723B9
:103F0000022249463846FFF7F2FE4046CAE770797A
:103F1000B178327940EA0160F178090441EA02217E
:103F2000084348F2700200215051101D4151307A6F
:103F3000F17940EA0123A36749463846226FFFF72B
:103F400012FB002801DA4046ACE7B4F86400A36F26
:103F50004343A069984207D0617F20230522384659
:103F6000FFF7C5FE40469DE74FF40040834200D373
:103F700003460120287205F110020121384601F0A4
:103F8000B5FB00208EE72DE9F04707468946164627
:103F9000D7F8BC524FF0FF38002D07D0287A40B137
:103FA00049463846BDE8F047FFF72DBC4046BDE81E
:103FB000F08705F50044A06950B1207F00060FD5B9
:103FC000617F202305223846FFF791FE4046EEE749
:103FD000617F202305223846FFF789FE4046E6E749
:103FE000D7F8C0028168484688474FF0050A48B1B3
:103FF0003A23022249463846FFF779FE85F808A0A1
:104000004046D4E7D7F8C002C1684846884748B15F
:104010002723022249463846FFF769FE85F808A0A3
:104020004046C4E77079B178327940EA0160F178AE
:10403000090441EA0221084348F27002002150516C
:10404000101D4151707AB17940EA0163F079317AFB
:10405000000440EA01200343A36749463846226F23
:10406000FFF781FA002801DA4046A0E7B4F86400BF
:10407000A36F4343A069984207D0617F20230522A4
:104080003846FFF734FE404691E74FF40040834244
:1040900000D303460120287205F1100201213846A1
:1040A00001F024FB002082E70A6842624A688262CB
:1040B000D1E902231A43D1E904310B431A43C16AFF
:1040C00021F0F7011143C162002070470069C0B2BE
:1040D0007047006800F0030070470844406970476B
:1040E0000FB4DDE901121143DDE903231A43114343
:1040F000059A1143069A1143426847F6FF639A43B3
:104100000A434260002004B0704710B503210160EB
:104110000220FCF71AFD002010BDD0F88000704787
:104120000A688260D1E901231A43D1E903310B43C4
:104130001A43C1686FF30B011143C160002070473F
:104140000968C0F880100020704710B586B004469A
:1041500001913721029140210391002104914FF4F4
:104160008061059101A92046FFF7DAFF41F288320C
:104170003721204600F09EF906B010BD10B586B07C
:1041800004460A4A114301912921029140210391D9
:1041900000210491510D059101A92046FFF7C0FFB0
:1041A000204600F043FA06B010BD00000000108069
:1041B00010B586B00446019110210291402103916F
:1041C000002104914FF48061059101A92046FFF779
:1041D000A7FF41F288321021204600F06BF906B0AB
:1041E00010BD10B586B00446019106210291402110
:1041F0000391002104914FF48061059101A92046AB
:10420000FFF78EFF41F288320621204600F052F976
:1042100006B010BD10B586B0044600210191029190
:10422000039104914FF48061059101A92046FFF7A5
:1042300077FF204600F026F906B010BD10B586B015
:1042400004464FF4D5710191082102914021039158
:10425000002104914FF48061059101A92046FFF7E8
:104260005FFF204600F04AFA06B010BD10B586B0D8
:1042700004460191122102914021039100210491F1
:104280004FF48061059101A92046FFF749FF41F2F3
:1042900088321221204600F00DF906B010BD10B58D
:1042A00086B0044601911121029140210391002121
:1042B00004914FF48061059101A92046FFF730FF7A
:1042C00041F288321121204600F0F4F806B010BD0A
:1042D00010B586B004460192072102914021039156
:1042E000002104914FF48060059001A92046FFF75A
:1042F00017FF41F288320721204600F0DBF806B0B4
:1043000010BD10B586B00446002101910222029230
:10431000C022039204914FF48061059101A92046C7
:10432000FFF7FEFE204600F057F906B010BD10B5AD
:1043300086B00446019109210291C0210391002118
:1043400004914FF48061059101A92046FFF7E8FE32
:10435000204600F041F906B010BD10B586B0044605
:104360000021019133220292402203920491110113
:10437000059101A92046FFF7D3FE41F2883233218F
:10438000204600F097F806B010BD10B586B0044680
:1043900001910D21029140210391002104914FF4DC
:1043A0008061059101A92046FFF7BAFE41F28832EB
:1043B0000D21204600F07EF806B010BD70B586B025
:1043C00006460D46002301930324029440240394DF
:1043D00004932301059301A93046FFF7A1FE2A4665
:1043E0000321304600F044F906B070BD10B586B028
:1043F0000446002101910C22029240220392049172
:104400001101059101A92046FFF78AFE034A0C21FC
:10441000204600F04FF806B010BD000000E1F505A1
:1044200010B586B0044601911921029140210391F3
:10443000002104914FF48061059101A92046FFF706
:104440006FFE41F288321921204600F033F806B0A1
:1044500010BD10B586B0044601911821029140218B
:104460000391002104914FF48061059101A9204638
:10447000FFF756FE41F288321821204600F01AF864
:1044800006B010BD0A494FF4FA520968B1FBF2F1C7
:1044900041F288325143491E4A1C06D0426B120633
:1044A000F9D5C5218163002070474FF00040704767
:1044B0000000002010B5034645484FF4FA54006848
:1044C000B0FBF4F45443641E601C0BD0586B10F026
:1044D000450FF8D00005F6D4586B400705D50420E9
:1044E000986310BD4FF0004010BD586BC00702D05C
:1044F0000120986310BDC52098631846FFF7E6FDBC
:10450000884201D0012010BD00211846FFF7E5FDCB
:104510003049084201D1002010BD002802DA4FF0D6
:10452000007010BD410001D5402010BD810001D5B3
:10453000802010BDC10002D54FF4807010BD010174
:1045400002D54FF4007010BD410102D54FF48060D8
:1045500010BDC10102D54FF4006010BD010202D5AB
:104560004FF4805010BD410202D54FF4005010BDF1
:10457000810202D54FF4804010BDC10202D54FF434
:10458000004010BD410302D54FF4003010BD81033F
:1045900002D54FF4802010BDC10302D54FF4002096
:1045A00010BD010402D54FF4801010BD410402D5A6
:1045B0004FF4001010BD810402D54FF4800010BDEF
:1045C000000702D54FF4000010BD4FF4803010BD3D
:1045D0000000002008E0FFFD13494FF4FA5209687B
:1045E000B1FBF2F241F288314A43521E511C0CD009
:1045F000416B11F0450FF8D00905F6D4416B49071E
:1046000006D504218163042070474FF000407047B5
:10461000416BC90703D00121816301207047C52187
:104620008163002070470000000000200F494FF414
:10463000FA520968B1FBF2F241F288314A43521E44
:10464000511C0CD0416B11F0450FF8D00905F6D480
:10465000416B490706D504218163042070474FF060
:1046600000407047C5218163002070470000002092
:1046700030B5034620484FF4FA540068B0FBF4F418
:1046800041F288304443641E601C0BD0586B10F01C
:10469000450FF8D00005F6D4586B400705D5042027
:1046A000986330BD4FF0004030BD586BC00702D05A
:1046B0000120986330BD1846FFF708FD884201D0FD
:1046C000012030BDC520986300211846FFF705FD85
:1046D00010F4604F04D0410406D54FF4005030BDB3
:1046E000000C1080002030BD000402D54FF4805033
:1046F00030BD4FF4803030BD0000002014494FF42D
:10470000FA520968B1FBF2F241F288314A43521E73
:10471000511C0CD0416B11F0450FF8D00905F6D4AF
:10472000416B490706D504218163042070474FF08F
:1047300000407047416BC90703D00121816301200C
:104740007047416B490601D54021816300207047C5
:10475000000000202DE9F04788B004460E46FCF723
:10476000F5FA07460025AA46CDF800A0CDF804A02A
:1047700008212068FFF71CFD00283FD1B4F8500045
:1047800001042068FFF7E1FC002837D1401E0290A9
:104790004FF00808CDF80C80302004904FF002094B
:1047A000CDF81490CDF818A00120079002A9206838
:1047B000FFF77AFC2068FFF7D0FD00281ED1EA46FB
:1047C00010E0416B890205D5FFF7A7FC4AF82500E8
:1047D0006D1C02E0416B890409D5FCF7B7FAC01BD8
:1047E000401C0ED02068416B11F02A0FE9D02168DF
:1047F000496B090708D5C0F83880082008B0BDE823
:10480000F0874FF00040F9E7416B890703D5C0F806
:1048100038900220F2E7416B890603D5202181639D
:104820002020EBE740F23A5181630198019900069C
:1048300001F47F4140EA0120019901F47F0140EA3F
:104840001120019940EA116030600098009900063B
:1048500001F47F4140EA0120009901F47F0140EA20
:104860001120009940EA116070600020C6E710B581
:1048700090B00446012004902068FFF72AFC00282D
:1048800054D0606C032819D02068FFF73AFD002847
:104890004AD100212068FFF720FC606704212068CE
:1048A000FFF71BFCA06708212068FFF716FCE067F4
:1048B0000C212068FFF711FCC4F88000606C03280D
:1048C00005D004A92068FFF779FD00282CD1606C81
:1048D00003281CD0BDF81000206501042068FFF7F4
:1048E00026FD002820D100212068FFF7F6FB606636
:1048F00004212068FFF7F1FBA06608212068FFF77C
:10490000ECFBE0660C212068FFF7E7FB2067042141
:104910002068FFF7E2FB000DE06405A92046FDF7E3
:1049200007FB30B14FF0805010B010BD4FF08060E9
:10493000FAE7B4F85000002302042068FFF7C8FC2F
:104940000028F1D1D4E9051220698DE807000FCCC9
:10495000FFF7C6FB0020E7E72DE9F84F04460027E4
:104960000097002600252068FFF754FC002819D185
:104970002068FFF763FC4FF0010930B1A76420689D
:10498000FFF748FC00280DD101E0C4F84890A06C66
:104990004FF0805A012807D100212068FFF7D5FB8E
:1049A00010B15046BDE8F88F4FF6FF7815E00021B2
:1049B0002068FFF7CAFB0028F4D111492068FFF7EF
:1049C000DDFB08B15046EDE700212068FFF785FBCD
:1049D0000646F50F0098401C00900098404501D213
:1049E000002DE4D00098404502D34FF08070D9E705
:1049F000700002D5C4F8449000E067640020D1E75D
:104A0000000010C170B504460D46002D0ED0B4F85C
:104A1000500001042068FFF7B8FC002805D10021F0
:104A20002068FFF75AFB2860002070BD4FF000603F
:104A300070BD1CB504460020009001900021206844
:104A4000FFF74BFB800102D54FF400601CBD6946A7
:104A50002046FFF77FFE0028F8D10198C0030ED54D
:104A6000B4F8500001042068FFF76FFB0028EDD177
:104A700000212068FFF7B5FB0028E7D11CBD4FF0EF
:104A800080601CBD1CB504460020009001900021F0
:104A90002068FFF722FB800102D54FF400601CBDA7
:104AA00069462046FFF756FE0028F8D101984003DA
:104AB0000ED5B4F8500001042068FFF746FB00282B
:104AC000EDD102212068FFF78CFB0028E7D11CBD47
:104AD0004FF080601CBD00007CB504461348144DA7
:104AE0000068B0FBF5F04FF47A7568430190606898
:104AF000B0F5827F0DD10B46009200228021204626
:104B000000F018F878B1606D40F020006065032077
:104B10007CBD019838B10198401E019020688068E2
:104B2000C0430006F5D500207CBD00000000002039
:104B300000366E012DE9F84304460F4691461E46A5
:104B4000089DFCF703F9401B351AFCF7FFF8804677
:104B500026480068C0F3CB30684300903AE0701CF0
:104B600038D0FCF7F3F8A0EB0800A84203D215B147
:104B7000009858B32BE02068416821F0E0014160C3
:104B80006068B0F5827F0BD1A068B0F5004F02D00D
:104B9000B0F5806F04D12068016821F04001016008
:104BA000A06AB0F5005F09D12068016821F40051C6
:104BB00001602068016841F4005101600120503417
:104BC0006070002020700320BDE8F8830025009865
:104BD000401E00902068806837EA000004D0002062
:104BE0004845BCD10020EFE70120F9E70000002094
:104BF00070B50C461546002802D0012814D106E0F5
:104C00004FF4007028804FF4C04020600CE007494A
:104C10000748FDF757FA05488169491E2160808BD6
:104C2000288004A0FBF732FC002070BDD4060020D1
:104C30005006002053746F726167655F6765744347
:104C400061707469636174792C726573000000008F
:104C500000B589B001A90548FDF734FA079810B1ED
:104C6000012009B000BD0020FBE700005006002035
:104C700010B50024002802D001280AD102E002F079
:104C800023FA06E002F0F2FB0446214602A0FBF7FD
:104C9000FDFB60B210BD000053746F726167655F09
:104CA000496E69742C7265733A25630010B5054826
:104CB000017841F01001017003A0FBF7E7FB002031
:104CC00010BD0000BA01002053746F726167655F08
:104CD00069737265616479000020704770B505469C
:104CE000084611461A460024124E337843F0020358
:104CF0003370002D02D0012D0FD107E04FF6FF7366
:104D000003EA4222490202F02DFA06E002F0D2FB49
:104D100044B2214608A0FBF7B9FB44B1224629461C
:104D20000AA0FBF7B3FB307840F008003070204653
:104D300070BD0000BA01002053746F726167655F37
:104D4000726561642C7265733A25630072657272D4
:104D50003A25642C2564000070B5054608461146C6
:104D60001A460024124E337843F001033370002DAD
:104D700002D0012D0FD107E04FF6FF7303EA422264
:104D8000490202F089FA06E002F0B0FB44B2214683
:104D900008A0FBF77BFB44B1307840F00400307092
:104DA0002246294609A0FBF771FB204670BD000092
:104DB000BA01002053746F726167655F777269741E
:104DC000652C7265733A2563000000007765727286
:104DD0003A25642C256400000178407841EA0020DF
:104DE000704710B5FBF7B8FF02F078FD012803D03B
:104DF000BDE8104002F05CBD10BD00000248016833
:104E000041F470010160704788ED00E00148FDF752
:104E10009BBE00000806002010B5806B0021C185F4
:104E2000C184FDF75BFF10BD0168CA6822F490726F
:104E3000CA6001684A6922F001024A61016B0129D6
:104E400004D10168CA6822F01002CA60202180F8EB
:104E50003E1000210163704710B50168CA6822F056
:104E60004002CA60202180F83D10FEF7EFF80020D4
:104E700010BD10B5044694F83E00222801D002204F
:104E800010BDA1684FF48052914201D1206920B138
:104E9000A06A91421DD051B10BE0A06A2168496817
:104EA000C1F308010180A06A801CA06209E02169A9
:104EB00079B12168496801F07F010170A06A401C46
:104EC000A062E08D401E0004000CE08505D00020AB
:104ED00010BD216849680170F0E72068C16821F0C1
:104EE0002001C1602068C16821F48071C160206820
:104EF000416921F001014161202084F83E00206BCE
:104F0000012805D02046FEF76BF80020206310BD75
:104F10002068C16821F01001C160A18D2046FDF715
:104F2000DCFEF2E72DE9F041044620680169E26801
:104F300021F4405111430161A1682069E2690143F4
:104F40006069104301432068C26849F20C639A43C8
:104F50000A43C26020684169A26921F4407111438B
:104F6000416133492068884202D03249884202D1E7
:104F7000FCF758FD01E0FCF745FDE1690023192726
:104F800064253226B1F5004F28D061688B0F8A0066
:104F9000A0FB0701FBF703FA0146B0FBF5F07A42EC
:104FA000504301EB800006EB0010B0FBF5F000F081
:104FB000F002B1FBF5F002EB0012B1FBF5F07B4221
:104FC000584301EB800006EB0010B0FBF5F02168C0
:104FD00000F00F0010448860BDE8F08161684A1855
:104FE000A0FB07015B41FBF7DAF90146B0FBF5F0E6
:104FF0000201B1FBF5F06FF01803584301EB80009C
:1050000006EBC000B0FBF5F000F0F80002EB400248
:10501000B1FBF5F0584301EB800006EBC000B0FB9C
:10502000F5F0216800F0070010448860D4E7000024
:10503000001001400014014081628285C285002178
:105040000164222280F83E2080F83C100168CA6882
:1050500042F48072CA6001684A6942F001024A6102
:105060000068C16841F02001C1600020704790F8DD
:105070003D10212901D0022070478168B1F5805F81
:1050800001D1016961B1016A4A1C026202680978B2
:105090005160C18C491E0904090CC1840AD013E077
:1050A000016A02680988C1F308015160016A891C1C
:1050B0000162EEE70168CA6822F08002CA600068F7
:1050C000C16841F04001C1600020704770B5002404
:1050D0000C4D0D48FDF70AFE02E0641CAC4204D8FA
:1050E0000948FDF7FCFD2028F7D1002402E0641CEC
:1050F000AC4206D8012205490348FDF759FF0028B4
:10510000F5D170BDFFFF01007405002008000020EC
:1051100010B5D0F8B822002A01D05268904700207C
:1051200010BD90F89C22012A05D0022A03D0032A40
:1051300001D000F019B84988012904D10021C0F834
:10514000A41200F035B8704710B513460A46002186
:1051500000F0CCFA002010BD10B513460A4600211D
:1051600000F0C6FB002010BD10B50446802120468B
:1051700000F0A8FB2046BDE81040002100F0A2BBD3
:1051800010B50521C0F8941200231A46194600F004
:10519000ADFA002010BD10B50223C0F89432826130
:1051A000C26113460A46002100F0A2FB002010BD98
:1051B00010B50421C0F8941200231A46194600F0D5
:1051C00097FB002010BD0A46D188012902D0114664
:1051D000FFF7CABF90F89C12012906D0022904D01B
:1051E000032909D01146FFF7BFBF002181600122CA
:1051F00000F10801FFF7CFBF0122011DFFF7CBBF70
:105200002DE9F84304460F460020009000260025B3
:105210007888010A082970D2DFE801F0AB040C227B
:10522000ABAB8B9AD4F8B412207C0A6869469047DD
:105230000646A3E0207C4FF0020840B1D4F8B80243
:10524000C16A68468847064686F8018096E0D4F829
:10525000B802816A68468847064686F801808DE074
:10526000C0B206285FD2DFE800F0031221303F4FC2
:10527000D4F8B402426822B1207C694690470646C1
:105280007CE039462046FFF76FFF012576E0D4F831
:10529000B402826822B1207C6946904706466DE0E0
:1052A00039462046FFF760FF012567E0D4F8B402D5
:1052B000C26822B1207C6946904706465EE03946C6
:1052C0002046FFF751FF012558E0D4F8B4020269E7
:1052D00022B1207C6946904706464FE03946204679
:1052E000FFF742FF012549E0D4F8B40242692AB130
:1052F000207C69469047064640E03AE03946204621
:10530000FFF732FF012539E0D4F8B402826922B1F7
:10531000207C69469047064630E039462046FFF734
:1053200023FF01252AE039462046FFF71DFF01250E
:1053300024E0207C28B139462046FFF715FF0125DF
:105340001CE0D4F8B802416B68468847064615E071
:10535000207C28B139462046FFF706FF01250DE0E5
:10536000D4F8B802016B6846884706460721717079
:1053700004E039462046FFF7F7FE0125002D0CD149
:10538000FA888AB1BDF8000048B1824200D90246CD
:10539000009231462046FFF7FEFEBDE8F88339460D
:1053A0002046FFF7E1FEF8E72046FFF701FFF4E7AC
:1053B000002102E0491CC9B2401C0278002AF9D140
:1053C000084670470A4690F89C12012906D0022927
:1053D00004D0032902D01146FFF7C6BED1880229A6
:1053E00002D01146FFF7C0BE0121C160D0F8A4125F
:1053F00009B10321C160022200F10C01FFF7CBBE0D
:1054000070B50D461646002818D004462046FFF712
:10541000CFFF022101EB400030803078287003205C
:1054200068700220002206E02954641C401CC0B2AF
:105430002A54401CC0B221780029F5D170BD00006B
:1054400010B5002811D00023C0F8B832C0F8C0321F
:10545000C0F8CC3209B1C0F8B412012180F89C1216
:105460000270BDE8104000F0DBB805A0FBF70EF8B5
:1054700005A0FBF70BF80AA0FBF708F8032010BD06
:105480004552524F523A2000496E76616C69642051
:105490004465766963652068616E646C6500000030
:1054A0000A00000010B5D0F8C402FBF773FD00201D
:1054B00010BD10B5D0F8C402FBF748FD002010BDA8
:1054C00070B504461346002904D094F89C020328C2
:1054D0004AD051E004F11400D4F8941200250229B6
:1054E00038D1D0E902218A420CD9521A8260194679
:1054F0002046FFF731FE00231A461946204600F0E9
:10550000F5F827E0914214D14068884211D3D4F8CD
:10551000981288420DD2002211462046FFF71CFE49
:10552000C4F8985200231A461946204600F0DEF8C7
:1055300010E094F89C02032805D1D4F8B802C168A1
:1055400009B1204688478021204600F0BBF920465B
:10555000FFF716FE94F8A00201280DD1204600F0B6
:10556000B3FB84F8A05207E0D4F8B80242691AB13C
:1055700020469047002800D1002070BD10B5044699
:105580001346002904D094F89C02032823D02AE073
:1055900004F5AA70D4F89412032924D1D0E9021298
:1055A00091420AD98A1A8260C068824200D30246B8
:1055B00019462046FFF7C8FD15E094F89C02032821
:1055C00005D1D4F8B802016909B1204688472046C0
:1055D000FFF7EEFD07E0D4F8B80282691AB1204661
:1055E0009047002800D1002010BD0020704710B562
:1055F000012180F89C12D0F8B822002A02D052680B
:1056000001799047002010BD10B5D0F8C402FBF717
:10561000EDFC002010BDD0F8C402FBF701BD000076
:1056200010B513494FF0A0420A6004224A600022DC
:105630000A630A610A6202238B61CA61CB60CA6293
:10564000C1F80404C0F8C4120846FBF7BDFF80216E
:105650000748FBF702FC402200210548FBF701FC4C
:10566000802201210248FBF7FCFB002010BD000056
:1056700040C301200A0601F07F01D0F8C402C1EB4B
:10568000C10100EB810002D590F83E00704790F810
:10569000FE01704710B5D0F8B822002A04D090F867
:1056A0009C32032B02D004E0032010BD126A02B129
:1056B0009047002010BD10B5D0F8B822002A04D0C1
:1056C00090F89C32032B02D004E0032010BD526AF4
:1056D00002B19047002010BD10B514461A46D0F80C
:1056E000C4022346FBF7A5FC002010BD10B5D0F87E
:1056F000C402FBF7CCFC002010BD70B504460125A8
:1057000084F89C520020C4F894026060C4F8A4029B
:10571000D4F8B80200281CD0D4F8BC1221B14268D9
:1057200012B1002120469047002240231146204616
:10573000FFF7D2FFA4F864514026C4F8606140230B
:10574000002280212046FFF7C7FFA58426620020A3
:1057500070BD032070BD90F89C12042903D190F80D
:105760009D1280F89C120020704710B5D0F8B81236
:10577000002904D090F89C22032A02D004E00320E0
:1057800010BDC96901B18847002010BD0174002017
:105790007047000070B504460D46064B01221A7092
:1057A00005A0FAF773FE2946D4F8C402FCF724F8E2
:1057B000002070BD6A010020555342445F4C4C5F8D
:1057C000536574555342416464726573730D0A00E6
:1057D00070B5044604F2AA20054600F02EFA012016
:1057E000C4F89402B4F8B002C4F8980294F8AA225B
:1057F00012F01F000AD0012811D0022818D020462C
:10580000BDE8704002F0800100F05CB80DA0FAF72E
:105810003DFE29462046BDE8704000F03DBB13A088
:10582000FAF734FE29462046BDE8704000F0B2BCCD
:1058300019A0FAF72BFE29462046BDE8704000F07B
:10584000BBBB00002D2D2D2D2D2D2D2D2D2D2D2DC6
:105850007573622072657120726563697069656E27
:1058600074206465766963650D0A00002D2D2D2D69
:105870002D2D2D2D2D2D2D2D7573622072657120EE
:10588000726563697069656E7420696E74657266AD
:105890006163650D0A0000002D2D2D2D2D2D2D2D60
:1058A0002D2D2D2D757362207265712072656369CF
:1058B0007069656E7420656E64706F696E740D0A30
:1058C0000000000010B5D0F8C402FBF701FC002076
:1058D00010BD10B5D0F8C402FBF7A9FF002010BD21
:1058E00000F5277001784170042101700020704795
:1058F00010B5D0F8C402FBF723FC002010BD000057
:1059000010B5002806D00A46054906A0FFF778FD25
:10591000034810BD0A46024902A0FFF771FDF7E7F0
:1059200048C701204D534320436F6E6669670000EE
:1059300010B5FDF747FC002010BD10B5FDF766FC63
:10594000002010BD70B5044601212046FFF7B1FDCF
:105950000025A4F8785181212046FFF7AAFD25876C
:10596000D4F8BC0248B12046FDF770FC0020D4F802
:10597000BC1201F06BFBC4F8BC52002070BD0000EB
:1059800012200880004870478C0100200A21018005
:105990000048704720010020202101800048704706
:1059A000E00000202021018000487047C000002056
:1059B00020210180004870470001002070B5044696
:1059C00048F28001002001F04DFBC0B1C4F8BC02D8
:1059D000207C0125C0B14023022201212046FFF78F
:1059E0007BFEA4F878514023022281212046FFF754
:1059F00073FE25872046FDF730FC002070BD002097
:105A0000C4F8BC02022070BD4FF400763346022277
:105A100001212046FFF760FEA4F8785133460222A8
:105A200081212046FFF758FE2587E3E710B50028BF
:105A300006D00A46054906A0FFF7E2FC034810BD60
:105A40000A46024902A0FFF7DBFCF7E748C701203E
:105A50004D534320496E74657266616365000000B2
:105A600004200880004870478801002010B50A46CD
:105A7000024903A0FFF7C4FC004810BD48C701203D
:105A800053544D6963726F656C656374726F6E69B0
:105A90006373000010B5002806D00A46054906A029
:105AA000FFF7AEFC034810BD0A46024908A0FFF705
:105AB000A7FCF7E748C701204D6173732053746F4B
:105AC0007261676520696E204653204D6F646500E2
:105AD0004D6173732053746F7261676520696E2026
