:020000040800F2
:1000000028FF01203D030008FF3D00084B3A00088F
:10001000FB3D0008890A00087D84000800000000FC
:100020000000000000000000000000007D02000849
:100030008D0A000800000000D9020008BB5E00081D
:100040006103000861030008610300086103000800
:1000500061030008610300086103000861030008F0
:1000600061030008610300086103000861030008E0
:1000700061030008610300086103000861030008D0
:1000800061030008610300086103000861030008C0
:1000900061030008610300086103000861030008B0
:1000A00061030008610300086103000861030008A0
:1000B00061030008E55E00086103000861030008B1
:1000C0006103000861030008610300086103000880
:1000D00061030008F1620008610300086103000881
:1000E0006103000861030008610300086103000860
:1000F0006103000861030008610300086103000850
:10010000610300086103000861030008610300083F
:10011000610300086103000861030008610300082F
:10012000610300086103000861030008610300081F
:10013000610300086103000861030008610300080F
:10014000610300086103000861030008013E000824
:1001500061030008610300086103000861030008EF
:1001600061030008610300086103000861030008DF
:10017000610300086103000861030008000000003B
:10018000610300086103000800F002F800F067F85E
:100190000AA090E8000C82448344AAF10107DA45E2
:1001A00001D100F05CF8AFF2090EBAE80F0013F0CD
:1001B000010F18BFFB1A43F001031847C4EC0000FD
:1001C000E4EC00000A444FF0000C10F8013B13F07F
:1001D000070408BF10F8014B1D1108BF10F8015BA0
:1001E000641E05D010F8016B641E01F8016BF9D193
:1001F00013F0080F1EBF10F8014BAD1C0C1B09D1EA
:100200006D1E58BF01F801CBFAD505E014F8016B5B
:1002100001F8016B6D1EF9D59142D6D370470000ED
:100220000023002400250026103A28BF78C1FBD8FF
:10023000520728BF30C148BF0B607047642900F0E7
:100240005181632900F0CC83732900F0D183002011
:1002500070471FB50EF087FB1FBD10B510BD00F035
:10026000E5FB1146FFF7F5FF0AF075FB00F003FC14
:1002700003B4FFF7F2FF03BC08F025F92C4B196813
:100280000868B0E8F04F80F30988BFF36F8F4FF034
:10029000000080F3118870470000000008480068E3
:1002A000006880F308884FF0000080F3148862B67D
:1002B00061B6BFF34F8FBFF36F8F00DF00BF00BF8A
:1002C00008ED00E0DFF80C00016841F47001016006
:1002D000704700BF88ED00E0EFF30980BFF36F8F38
:1002E000134B1A681EF0100F08BF20ED108A20E98A
:1002F000F04F106009B44FF0500080F31188BFF345
:100300004F8FBFF36F8F0DF013FC4FF0000080F3A1
:10031000118809BC19680868B0E8F04F1EF0100F8A
:1003200008BFB0EC108A80F30988BFF36F8F704765
:1003300038000020EFF30580704700000C4801688A
:1003400041F4700101600B4880470B480047FEE70D
:10035000FEE7FEE7FEE7FEE7FEE7FEE7FEE7FEE775
:10036000FEE7000005480649044A064B70470000B6
:1003700088ED00E0D15E00088901000828FB01201B
:1003800028FF012028FB0120704753EA020C00F0EF
:1003900069802DE9F04B4FF00006002B1FBFB3FA28
:1003A00083F503FA05F424FA05F65E4012BF1643FE
:1003B000B2FA82F502FA05F4C5F120051EBF22FA51
:1003C00005FC44EA0C04203556EA044C4FEA144478
:1003D00018BF641C4FF000084FF00009904271EB09
:1003E000030C39D3002919BFB1FA81F701FA07F6D6
:1003F000B0FA80F700FA07F6C7F120071EBF20FA0F
:1004000007FC46EA0C062037B6FBF4FCA7EB050711
:10041000103F07F01F0BCBF120060CFA0BFB2CFA58
:1004200006F644BFB3460026202FA4BF5E464FF019
:10043000000B5BEA060C08BF4FF0010B19EB0B0930
:10044000ABFB027C48EB0608C01B06FB02CC0BFB97
:1004500003CC71EB0C01C1E70B460246414648460E
:10046000BDE8F08B13B54FF000004FF00001AFF383
:100470000080BDE81C4070470FB4044910B503AAC2
:10048000029800F0B9FA10BC5DF814FB24000020BB
:1004900070B50C460546012A05D02878800600D59F
:1004A000EA69002302E0012305E05B1C934202D2CB
:1004B000E05C0028F9D1A869E618C01AA861286A8A
:1004C000184428622846AFF3008004E0D5E90121F2
:1004D00014F8010B9047B442F8D32846AFF30080DC
:1004E00070BD00002DE9F041064600241068752912
:1004F000314616A510D0AFF30080002802DA404242
:1005000013A507E031688A0701D512A502E0490763
:1005100004D511A5012401E0AFF3008000210A22D7
:1005200006F1240709E0B0FBF2FCB0FBF2F302FB9A
:100530001C00303078541846491C0028F3D123465B
:100540002A463046BDE8F04100F0CEB90000000078
:100550002D0000002B000000200000002DE9F05FBE
:10056000894604464FF0000ADFF874B1FB44C0F836
:1005700020A02046E1688847002874D0252806D0AE
:10058000D4E901219047206A401C2062F1E700264F
:100590005F462046E16888472028054607DB312D65
:1005A00005D2781910F8200C08B10643F1E7B0071E
:1005B00001D526F00406C4F81CA00027C4F818A032
:1005C0002A2D09D0284607F077FF38B304EB8708B7
:1005D000303DC8F8185019E059F8041B204604EBC8
:1005E00087029161E1688847012F054618D1E069CB
:1005F000002820DA26F020061DE0D8F8180000EBCD
:10060000800005EB40003038C8F818002046E1684B
:100610008847054607F050FF0028EED1012F0AD089
:100620002E2D08D12046E16888477F1C0546022F01
:1006300046F02006C4DBA069002803DA404246F0F9
:100640000106A061F00701D026F010066C2D0BD03A
:10065000682D09D04C2D39D06A2D35D0742D35D068
:100660007A2D33D016E038E0E1682F4620468847DF
:10067000B842054609D16C2F26D04FF48060E1685E
:10068000064320468847054604E06C2F1AD04FF4F5
:10069000807006430DB3A5F14100192802D820351A
:1006A00046F400664A462946204626604E46FFF735
:1006B000C5FD80B101280BD0F61D26F0070000F122
:1006C000080956E74020E4E78020D8E70020D6E775
:1006D00006F104094DE7284652E7206ABDE8F09F7D
:1006E000FEE80000401ECAB210F8011F8A4202D084
:1006F0000029F9D10020704740EA010310B59B079B
:100700000FD1042A0DD310C808C9121F9C42F8D07B
:1007100020BA19BA884201D9012010BD4FF0FF302C
:1007200010BD1AB1D30703D0521C07E0002010BD42
:1007300010F8013B11F8014B1B1B07D110F8013BCE
:1007400011F8014B1B1B01D1921EF1D1184610BDAF
:10075000032A40F2308010F0030C00F0158011F8ED
:10076000013BBCF1020F624498BF11F801CB00F8C5
:10077000013B38BF11F8013BA2F1040298BF00F819
:1007800001CB38BF00F8013B11F0030300F02580D6
:10079000083AC0F0088051F8043B083A51F804CBFD
:1007A000A0E80810F5E7121D5CBF51F8043B40F8C3
:1007B000043BAFF30080D20724BF11F8013B11F8CE
:1007C00001CB48BF11F8012B24BF00F8013B00F812
:1007D00001CB48BF00F8012B704710B5203AC0F09C
:1007E0000B80B1E81850203AA0E81850B1E8185032
:1007F000A0E81850BFF4F5AF5FEA027C24BFB1E86F
:100800001850A0E8185044BF18C918C0BDE81040DF
:100810005FEA827C24BF51F8043B40F8043B08BFE8
:100820007047D20728BF31F8023B48BF11F8012BAF
:1008300028BF20F8023B48BF00F8012B704702F0A8
:10084000FF0343EA032242EA024200F002B84FF0FB
:1008500000020429C0F0128010F0030C00F01B808D
:10086000CCF1040CBCF1020F18BF00F8012BA8BF9B
:1008700020F8022BA1EB0C0100F00DB85FEAC17C5F
:1008800024BF00F8012B00F8012B48BF00F8012B12
:1008900070474FF0000200B5134694469646203943
:1008A00022BFA0E80C50A0E80C50B1F12001BFF429
:1008B000F7AF090728BFA0E80C5048BF0CC05DF88F
:1008C00004EB890028BF40F8042B08BF704748BFDD
:1008D00020F8022B11F0804F18BF00F8012B704751
:1008E00070477047704770472DE9F0470D469946AD
:1008F0009246044600F124080168880604D5E069A0
:1009000021F01001216000E00120A84201DD471B19
:1009100000E00027A1697A1902EB0900081AA0611A
:100920002078C00602D42046AFF30080002608E0FD
:10093000D4E901211AF806009047206A401C761C71
:1009400020624E45F4DB2078C0060AD52046AFF37E
:10095000008006E0D4E9012130209047206A401C45
:100960002062381EA7F10107F4DC07E0D4E9012179
:1009700018F805009047206A401C2062281EA5F147
:100980000105F3DC2046AFF300802078000602D595
:100990000220BDE8F0870120FBE7000001694A1C46
:1009A00002610878704700B58FB0CDE901310021B0
:1009B000059105497944CDE9031011466846FFF7D2
:1009C000CDFD0FB000BD0000E5FFFFFF10B543698E
:1009D00013B1AFF3008001E0FFF75AFD012010BD15
:1009E000127800F124010A7000224A700122EDE71A
:1009F00011684FF0FF32E9E7074B70B50D467B44B5
:100A0000FFF7D1FF0446284600F008F810B14FF078
:100A1000FF3070BD204670BD6B970000007B00F07A
:100A20008000704700487047C8FA01207546FFF7FC
:100A3000F9FFAE4605006946534620F0070085469B
:100A400018B020B5FFF78EFCBDE820404FF000063F
:100A50004FF000074FF000084FF0000B21F00701A6
:100A6000AC46ACE8C009ACE8C009ACE8C009ACE8E9
:100A7000C0098D46704710B50446AFF3008020468C
:100A8000BDE81040FFF7F4BB00BFFEE77047000071
:100A900070B504461D460023B5F5804F13D154F8B8
:100AA00022300C480340D1E9000640EA06108E6867
:100AB00040EA06208E8940EA06408E6930430343AF
:100AC00044F8223003E06FF0704044F82200002028
:100AD00070BD00000000F0CF10B50346002208688A
:100AE00053F8202012480240D1E901042043CC6889
:100AF00020430C6920434C6920438C692043CC6916
:100B000020430C6A20434C6A20438C6A2043CC6A01
:100B10002043CC6B20430C6B204302438868082899
:100B200001D142F04002086843F82020002010BDA7
:100B30008000F0FF30B503460024501C53F82040DD
:100B400004F04044D1E9000540EA05108D6840EA10
:100B500005208D8940EA0545088A401E45EA005572
:100B6000087D801E45EA00608D6928430443501CBF
:100B700043F82040002030BD70B50A480468001DCD
:100B80000568001D0668344454B108220649204611
:100B900002F05DFF042204491031284602F057FF9D
:100BA00070BD0000107AFF1FF601002070B50446EA
:100BB000A56D00F08BF9064694F83500022808D0A0
:100BC0008020606500BF002084F8340000BF012051
:100BD00070BD2068006820F0160021680860206859
:100BE000406920F0800021684861206C08B9A06C41
:100BF00028B12068006820F008002168086020689B
:100C0000006820F00100216808600FE000F05EF944
:100C1000801B05280AD92020606500BF002084F8C9
:100C2000340000BF032084F83500D1E72068006855
:100C300000F001000028E9D194F85C103F208840C2
:100C4000A86000BF002084F8340000BF012084F8B1
:100C500035000020BCE7014691F83500022803D09A
:100C60008020486501207047052081F8350008681C
:100C7000006820F001000A6810600020F3E710B55A
:100C80000446A0B207F0FEFF10BD0000F8B5024612
:100C90000B460025002400200021DEE0012606FA94
:100CA00001F51E6806EA0504AC4275D11E7906F00E
:100CB0000306012E04D01E7906F00306022E13D17E
:100CC00090684F000326BE40B0434F00DE68BE4030
:100CD00030439060506801268E40B0431E79C6F3C1
:100CE00000168E40304350601E7906F00306032E36
:100CF00009D0D0684F000326BE40B0434F009E6825
:100D0000BE403043D0601E7906F00306022E13D198
:100D1000CF0802F1200656F827004E07F70E0F26DF
:100D2000BE40B0434F07FF0E1E69BE403043CF08A0
:100D300002F1200646F8270010684F000326BE4047
:100D4000B0431E7906F003064F00BE4030431060EA
:100D50005E6806F08056B6F1805F7DD100BF002648
:100D60000096404E366846F480463E4F3E603E4612
:100D7000366806F48046009600BF00BF3A4E8F08E2
:100D800056F827008E07370F0F26BE40B043374E68
:100D9000B24202D1002624E05EE0354EB24201D1DB
:100DA00001261EE0334EB24201D1022619E0324E36
:100DB000B24201D1032614E0304EB24201D10426E2
:100DC0000FE02F4EB24201D105260AE02D4EB2426D
:100DD00001D1062605E02C4EB24201D1072600E0E3
:100DE00008268F073F0FBE4030431F4E8F0846F83E
:100DF0002700264E3068A0435E6806F48036B6F5BC
:100E0000803F00D12043214E3060361D3068A04322
:100E10005E6806F40036B6F5003F00D120431B4E55
:100E2000361D3060361D3068A0435E6806F48016BB
:100E3000B6F5801F00D12043144E08363060361DB1
:100E40003068A0435E6806F40016B6F5001F00D1B6
:100E500020430E4E0C363060491C1029FFF41EAFA3
:100E6000F8BD00004438024008380140000002404C
:100E70000004024000080240000C02400010024042
:100E80000014024000180240001C0240003C0140D7
:100E9000024613690B400BB1012000E000207047AF
:100EA00010B5426921EA020302EA010443EA04435D
:100EB000836110BD0AB1816101E00B048361704759
:100EC00001480068000C7047002004E001480068F9
:100ED000704700002C00002003480068034909788F
:100EE00008440149086070472C00002034000020AD
:100EF00010B50A48006840F40070084908600846C8
:100F0000006840F480600860052000F07FF80F2042
:100F100000F006F800F02AF8002010BD003C024066
:100F200070B504460E4800784FF47A71B1FBF0F0CA
:100F30000C490968B1FBF0F5284602F043FA08B104
:100F4000012070BD102C07D200222146501E00F057
:100F50001EF80548046001E00120F2E70020F0E7F8
:100F600034000020000000203000002070470146BF
:100F70000846002809DB00F01F0301229A404309BC
:100F80009B0003F1E023C3F8002100BF70472DE967
:100F9000F05F80460D461646002707F071FA0746B7
:100FA00039462A46334601F00700C0F1070ABAF174
:100FB000040F02D94FF0040A01E0C0F1070AD1463C
:100FC00000F1040ABAF1070F02D24FF0000A01E063
:100FD000A0F1030AD4464FF0010A0AFA09FAAAF16D
:100FE000010A0AEA020A0AFA0CFA4FF0010B0BFA9C
:100FF0000CFBABF1010B0BEA030B4AEA0B04214695
:10100000404607F045FABDE8F09F000000BF00F041
:101010000702064B19684FF6FF031940044B0B43B8
:1010200043EA0221014B196000BF70470CED00E05C
:101030000000FA05704702461068416200207047C0
:10104000F0B5034615461868446A21B944EA0540DC
:101050001E68B06219E01868806A04EB1044002230
:1010600008E0186800F5827050F8220004EB104484
:10107000501CC2B2481E9042F3D844EA0547186893
:1010800000F582704E1E40F826700020F0BD000072
:1010900010B5044601200549087005A0FFF7ECF9DA
:1010A000D4F8040405F058FC10BD0000BE01002077
:1010B000555342445F20436F6E6E65637465645F91
:1010C00043616C6C6261636B0D0A000070B504468D
:1010D0000D46C5EBC50304F13C0101EB8301CA6871
:1010E0002946D4F8040405F07FFB70BD70B50446B2
:1010F0000D46C5EBC50304F5FE7101EB8301CA681B
:101100002946D4F8040405F0E0FB70BD10B5044690
:1011100000200549087005A0FFF7AEF9D4F80404D3
:1011200005F01DFC10BD0000BE01002055534220FB
:1011300044657669636520446973636F6E6E6563A9
:101140007465642063616C6C6261636B2E0D0A00D0
:1011500070B504460E4606F0800080280AD106F0DD
:101160000F00C0EBC00104F13C0000EB8105012041
:10117000687009E006F00F00C0EBC00104F5FE70D6
:1011800000EB81050020687006F00F00287000BF9A
:1011900094F8BC03012801D1022070BD012084F81D
:1011A000BC0300BF2946206806F0E2FA00BF002019
:1011B00084F8BC0300BF00BFEFE770B504460E46DD
:1011C00006F00F006168884201D9012070BD06F069
:1011D000800080280AD106F00F00C0EBC00104F1A6
:1011E0003C0000EB81050120687009E006F00F006B
:1011F000C0EBC00104F5FE7000EB810500206870B3
:101200000020A87006F00F00287000BF94F8BC03FF
:10121000012801D10220D9E7012084F8BC0300BFD6
:101220002946206806F08AFD00BF002084F8BC0330
:1012300000BF00BFCAE770B504460D4600BF94F872
:10124000BC03012801D1022070BD012084F8BC0339
:1012500000BF05F08000802805D105F00F0120684F
:1012600006F0C0FF02E0206806F0A6FF00BF0020E5
:1012700084F8BC0300BF00BFE6E7024601F00F00A0
:10128000C0EBC00302F5FE7000EB8300806970477D
:101290002DE9F04705460E4690461F464FF00009DF
:1012A00006F0800080280AD106F00F00C0EBC001D4
:1012B00005F13C0000EB81040120607009E006F0BC
:1012C0000F00C0EBC00105F5FE7000EB81040020AB
:1012D000607006F00F002070C4F80880E770607836
:1012E00008B12078E080022F01D10020207100BFDA
:1012F00095F8BC03012802D10220BDE8F087012047
:1013000085F8BC0300BF2146286806F04DF900BFF0
:10131000002085F8BC0300BF4846EEE72DE9F04108
:1013200004460E461746984606F00F00C0EBC00173
:1013300004F5FE7000EB8105EF60C5F81480002015
:10134000A861687006F00F0028702069012800D19C
:101350002F6106F00F0028B9227C2946206806F08C
:10136000C9FB04E0227C2946206806F07BFD0020B2
:10137000BDE8F08170B504460D4605F00F006168C8
:10138000884201D9012070BD05F0800080280AD173
:1013900005F00F00C0EBC00104F13C0000EB81063A
:1013A0000120707007E0C5EBC50104F5FE7000EB8D
:1013B0008106002070700120B07005F00F003070C1
:1013C00000BF94F8BC03012801D10220DBE7012013
:1013D00084F8BC0300BF3146206806F0F6FC05F037
:1013E0000F0028B9217C04F57172206806F06EFCAC
:1013F00000BF002084F8BC0300BF00BFC3E72DE995
:10140000F04104460E461746984606F00F00C0EB22
:10141000C00104F13C0000EB8105EF60C5F81480C9
:101420000020A8610120687006F00F002870206974
:10143000012800D12F6106F00F0028B9227C29462F
:10144000206806F057FB04E0227C2946206806F05D
:1014500009FD0020BDE8F0812DE9FE4F044620681B
:101460000290029D206806F0E8FE00287DD12068E9
:1014700006F022FF08B9BDE8FE8F206806F01CFFC9
:1014800000F00200022805D12068406900F0020047
:1014900021684861206806F00FFF00F01000102856
:1014A00046D12068806920F0100021688861029888
:1014B000D0F8209009F00F00C0EBC00104F5FE70D9
:1014C00000EB810BC9F3434002281AD147F6F070B4
:1014D00009EA000030B3C9F30A12DBF80C100298D5
:1014E00006F0EFFEC9F30A11DBF80C000844CBF854
:1014F0000C00C9F30A11DBF818000844CBF81800F7
:1015000010E0C9F3434006280CD1082204F571719C
:10151000029806F0D6FEC9F30A11DBF81800084459
:10152000CBF818002068806940F0100021688861BD
:10153000206806F0C1FE00F40020B0F5002F52D163
:101540000026206806F088FE824649E00AF0010085
:10155000E8B3F1B2206806F0A2FE804608F0010070
:1015600058B1012105F5306000E021E200EB4610A2
:1015700081603146204602F08DFC08F00800082802
:1015800009D1082105F5306000EB46108160314635
:10159000204602F04DFC08F01000102805D1102163
:1015A00005F5306000EB4610816008F0200020282F
:1015B00005D1202105F5306000EB4610816008F46C
:1015C0000050B0F5005F08D14FF4005100E004E096
:1015D00005F5306000EB46108160761C4FEA5A0A30
:1015E000BAF1000FB2D1206806F066FE00F4802048
:1015F000B0F5802F7ED1206806F024FE82460026BA
:1016000083E00AF0010000287CD0F1B2206806F0E7
:101610002DFE804608F00100F0B306F00F01012016
:101620008840019040F634004159019821EA0000B9
:1016300040F634014851012105F5106000EB4610D9
:1016400081602069012824D1C6EBC60104F13C0069
:1016500000EB8100C6EBC602C16804F13C0000EB60
:10166000820080680144C6EBC60204F13C0000EB36
:101670008200C1606EB9C6EBC60104F13C0000EB0C
:101680008100406928B904F571720121206806F0D3
:101690001DFBF1B2204600E001E0FFF717FD08F066
:1016A0000800082805D1082105F5106000EB461058
:1016B000816008F01000102805D1102105F5106098
:1016C00000EB4610816008F04000402805D1402121
:1016D00005F5106000EB4610816008F0020002285A
:1016E00005D1022105F5106000EB4610816008F07D
:1016F000800001E00DE005E0802803D1314620465E
:1017000002F086FC761C4FEA5A0ABAF1000F7FF409
:1017100078AF206806F0D0FD00F00040B0F1004F37
:101720001CD140F60400405920F0010140F60400AD
:10173000415194F8F403012807D1002084F8F40300
:1017400000212046FFF776FC02E0204600F09AFADE
:101750002068406900F0004021684861206806F078
:10176000ABFD00F40060B0F5006F0ED140F608004C
:10177000405900F0010010B1204600F0E7FA20685F
:10178000406900F4006021684861206806F094FD1B
:1017900000F48050B0F5805F7DD140F604004059E0
:1017A00020F0010140F6040041511021206806F0AC
:1017B00019FD00273EE04FF67F3105F5106000EB84
:1017C0004710816005F5106000EB4710006820F4B9
:1017D000001105F5106000EB4710016005F5106081
:1017E00000EB4710006840F0006105F5106000EB69
:1017F000471001604FF67F3105F5306000EB471070
:10180000816005F5306000EB4710006820F400119E
:1018100005F5306000EB4710016005F5306000EB26
:101820004710006840F0006105F5306000EB47109C
:1018300001607F1C6068B842BDD840F61C0040596A
:1018400040F0011140F61C004151206B70B1D5F8F9
:10185000840840F00B01C5F8841840F64400405954
:1018600040F00B0140F6440041510FE040F61400F7
:10187000405942F22B01084340F614014851081F19
:10188000405940F00B014FF401604151D5F8000878
:1018900020F4FE6000E00DE0C5F80008217C04F5AE
:1018A0007172206806F012FA2068406900F48050D6
:1018B00021684861206806F0FFFC00F40050B0F594
:1018C000005F17D1206805F0D7FE206806F0A2FC63
:1018D000E06000F009FB0090227B2068009906F090
:1018E0003BFD204600F082F92068406900F400507A
:1018F00021684861206806F0DFFC00F00800082835
:1019000008D1204600F0D2F92068406900F00800B4
:1019100021684861206806F0CFFC00F48010B0F523
:10192000801F0AD100263146204600F043F8206887
:10193000406900F4801021684861206806F0BCFC12
:1019400000F40010B0F5001F0AD1002631462046F1
:1019500000F039F82068406900F4001021684861FF
:10196000206806F0A9FC00F08040B0F1804F08D15B
:101970002046FFF78DFB2068406900F08040216819
:101980004861206806F098FC00F0040004280FD19C
:101990002068D0F8049009F00400042802D1204601
:1019A000FFF7B4FB2068406840EA090021684860FE
:1019B00000BF60E570B504460D462946D4F804041E
:1019C00005F03AF870BD70B504460D462946D4F8C6
:1019D000040405F049F870BD70B58AB0044614B926
:1019E00001200AB070BD266894F8BD0328B9002014
:1019F00084F8BC03204600F0A3F8032084F8BD035C
:101A0000F06B00F4807008B900212161206806F0B5
:101A100069F8282204F110016846FEF7DEFE94E81A
:101A20000F0005F03DFE20B1022084F8BD03012027
:101A3000D7E70021206806F055FC002531E00121A0
:101A4000C5EBC50204F13C0000EB82004170C5EB20
:101A5000C50104F13C0000F82150C5EBC50100EBC5
:101A60008100C5800021C5EBC50204F13C0000EBFC
:101A70008200C170C5EBC50204F13C0000EB82009E
:101A80008160C5EBC50204F13C0000EB8200C1603F
:101A9000C5EBC50204F13C0000EB82004161681C0B
:101AA000C5B26068A842CAD800252AE00021C5EB6B
:101AB000C50204F5FE7000EB82004170C5EBC50164
:101AC00004F5FE7000F821500021C5EBC50200EBC3
:101AD0008200C170C5EBC50204F5FE7000EB820008
:101AE0008160C5EBC50204F5FE7000EB8200C160A9
:101AF000C5EBC50204F5FE7000EB82004161681C75
:101B0000C5B26068A842D1D8282204F11001684605
:101B1000FEF763FE94E80F0005F0F4FE20B102200A
:101B200084F8BD0301205CE7002084F83800012020
:101B300084F8BD03206805F0D3FE002051E70000C3
:101B400010B586B00446142101A8FEF7A2FE206855
:101B5000B0F1A04F43D100BF2248006840F08000A0
:101B60002049086000BF002000901E481030006827
:101B700040F480401B49103108600846006800F4BA
:101B80008040009000BF00BF00BF00BF0020009059
:101B90001448001F006840F001001249091F086046
:101BA0000846006800F00100009000BF00BF4FF43D
:101BB000C050019002200290002003900320049066
:101BC0000A20059001A90848FFF760F803220821C0
:101BD0004320FFF7DCF94320FFF7C9F900E000BF1D
:101BE00006B010BD343802400000024070B5044613
:101BF0000125E06810B102280AD104E00CA0FEF72C
:101C00003BFC002509E011A0FEF736FC012504E0AD
:101C100015A0FEF731FC012500BF00BFD4F8040475
:101C200004F05AFF2946D4F8040404F0ACFF70BD58
:101C300055534220446576696365204C6962726140
:101C4000727920205B48535D0D0A000055534220F5
:101C5000446576696365204C6962726172792020FF
:101C60005B46535D0D0A000055534220446576697A
:101C70006365204C69627261727920205B46533F34
:101C80005D0D0A0010B5044603A0FEF7F5FBD4F87D
:101C9000040404F057FF10BD446576696365205263
:101CA0006573756D65640D0A0000000010B504468B
:101CB000D4F8040404F051FF10BD70B504460D467D
:101CC00000BF94F8BC03012801D1022070BD01209F
:101CD00084F8BC0300BF84F838502946206806F019
:101CE0001CFB00BF002084F8BC0300BF00BFEDE771
:101CF00010B5044604F57171D4F8040404F058FFDB
:101D000010BD70B50446256800BF94F8BC030128D7
:101D100001D1022070BD012084F8BC0300BFA06A7D
:101D2000012806D1A069012803D0A86B40F48030B7
:101D3000A863206806F038FA206805F0BFFD00BFF0
:101D4000002084F8BC0300BF00BFE3E710B50446E1
:101D5000002003490870D4F8040404F076FF10BD95
:101D6000BE01002070B504460D460CB9012070BDBF
:101D70005848006800F00700A84209D255490D7084
:101D80000846006800F00700A84201D00120EEE7F5
:101D9000207800F0020002281DD1207800F0040015
:101DA000042805D14C48006840F4E0504A490860D6
:101DB000207800F00800082805D14748006840F462
:101DC0006040454908604448006820F0F000A16880
:101DD000084341490860207800F00100A8B360681A
:101DE000012807D13C4808380068C0F34040B8B922
:101DF0000120BCE76068022802D06068032807D190
:101E0000354808380068C0F3406048B90120AEE7A3
:101E1000314808380068C0F3400008B90120A6E73F
:101E20002D48006820F00300616808432A490860D3
:101E3000FFF74CF8064609E0FFF748F8801B41F22F
:101E40008831884202D9032091E707E022480068E0
:101E500000F00C006168B0EB810FEDD11D48006807
:101E600000F00700A84209D91A490D700846006819
:101E700000F00700A84201D0012078E7207800F0A8
:101E80000400042807D11448006820F4E050E168F9
:101E9000084311490860207800F00800082808D19C
:101EA0000D48006820F46040216940EAC1000A49F9
:101EB000086000F03FF808490968C1F30311074AB8
:101EC000515CC8400649086006480068FFF728F8DA
:101ED00000204CE7003C02400838024070E900084E
:101EE000000000203000002001480068704700001A
:101EF0000000002000B5FFF7F7FF04490968C1F3AF
:101F00008221034A515CC84000BD000008380240ED
:101F100080E9000800B5FFF7E7FF04490968C1F34D
:101F20004231034A515CC84000BD000008380240FD
:101F300080E900082DE9F047002400250026A1468D
:101F40002548006800F00C0020B1042805D00828BE
:101F50003AD105E0DFF8849039E0DFF8849036E08C
:101F60001D48001F006800F03F041B48001F006868
:101F700000F4800078B11A481749091F0968C1F3B5
:101F80008811A0FB01700146224600233846FEF767
:101F9000FCF905460EE011480F49091F0968C1F315
:101FA0008811A0FB01700146224600233846FEF747
:101FB000ECF905460848001F0068C0F30140401CCA
:101FC0004600B5FBF6F902E0DFF8109000BF00BF55
:101FD0004846BDE8F0870000083802400024F400BD
:101FE00000127A00F8B504460CB90120F8BD20783B
:101FF00000F00100002874D0F948006800F00C00DF
:1020000004280DD0F648006800F00C00082813D111
:10201000F348001F006800F48000B0F5800F0BD17A
:10202000EF4808380068C0F34040002859D0606885
:10203000002856D10120D9E700BF6068B0F5803F85
:1020400008D1E7480838006840F48030E44908398E
:1020500008601EE06068B0F5A02F0DD1E048083898
:10206000006840F48020DE490839086008460068AE
:1020700040F4803008600CE0D9480838006820F44B
:102080008030D749083908600846006820F480206D
:10209000086000BF606890B1FEF718FF054606E0D3
:1020A000FEF714FF401B642801D903209EE7CC48AB
:1020B00008380068C0F340400028F1D011E0FEF776
:1020C00005FF054606E0FEF701FF401B642801D925
:1020D00003208BE7C24808380068C0F3404000285E
:1020E000F1D1207800F0020002285FD1BC480068DE
:1020F00000F00C0058B1BA48006800F00C00082845
:102100001CD1B748001F006800F48000B0B9B44883
:1021100008380068C0F3400020B1E068012801D011
:10212000012063E7AE480838006820F0F800216914
:1021300040EAC100AA490839086037E0E06800B306
:102140000120A8490860FEF7C1FE054606E0FEF73B
:10215000BDFE401B022801D9032047E7A0480838EC
:102160000068C0F340000028F1D09D48083800689E
:1021700020F0F800216940EAC10099490839086057
:1021800014E0002097490860FEF7A0FE054606E02F
:10219000FEF79CFE401B022801D9032026E7904849
:1021A00008380068C0F340000028F1D1207800F022
:1021B000080008282CD16069A8B101208A4908606C
:1021C000FEF784FE054606E0FEF780FE401B02286F
:1021D00001D903200AE782486C300068C0F3400050
:1021E0000028F1D014E000207F490860FEF76EFE61
:1021F000054606E0FEF76AFE401B022801D90320CF
:10220000F4E677486C300068C0F340000028F1D154
:10221000207800F00400042870D10027704838307E
:10222000006800F0805090B900BF002000906C481A
:102230003830006840F080506949383108600846FD
:10224000006800F08050009000BF00BF0127674881
:10225000006800F48070B0B96448006840F4807091
:1022600062490860FEF732FE054606E0FEF72EFEE4
:10227000401B022801D90320B8E65C48006800F43E
:1022800080700028F2D000BFA068012808D154480F
:102290006830006840F001005149683108601DE075
:1022A000A06805280DD14E486830006840F0040051
:1022B0004B49683108600846006840F0010008603A
:1022C0000CE047486830006820F00100444968315C
:1022D00008600846006820F00400086000BFA0689D
:1022E000A8B1FEF7F3FD054609E0FEF7EFFD401B40
:1022F00041F28831884202D9032077E626E0384847
:1023000068300068C0F340000028EED013E0FEF70C
:10231000DDFD054608E0FEF7D9FD401B41F288319E
:10232000884201D9032061E62D4868300068C0F377
:1023300040000028EFD1012F07D12948383000682C
:1023400020F0805026493831086000BFA06900287D
:1023500045D02348006800F00C0008285DD0A06933
:10236000022845D100201F490866FEF7AFFD05464B
:1023700006E0FEF7ABFD401B022801D9032035E63D
:10238000174808380068C0F340600028F1D1D4E94C
:1023900007010843616A40EA81110122A06AC2EB89
:1023A000500041EA00412C20005D41EA00600C49E8
:1023B000091F086001200B490866FEF787FD0546E6
:1023C00006E0FEF783FD401B022801D903200DE63D
:1023D000034808380068C0F340600028F1D049E0A5
:1023E0000838024000004742800E4742007000401B
:1023F000002021490866FEF769FD054606E0FEF764
:1024000065FD401B022801D90320EFE51B48006849
:10241000C0F340600028F2D12CE0A069012800D16F
:10242000E4E51648001D0668A069012820D006F4DE
:102430008001E06981421BD106F03F01206A8142A0
:1024400016D147F6C0703040616AB0EB811F0FD1E2
:1024500006F440310122A06AC2EB5000B1EB004FFC
:1024600006D106F070612C20005DB1EB006F01D049
:102470000120BBE50020B9E50000474200380240DA
:10248000F0B589B004460E460027032084F83400D6
:10249000606C032820D0B6F5805F04D1A06B40F0BB
:1024A0008050A0631CE0B6F5006F07D1204603F012
:1024B0005BFB0546A06B2843A06311E03EB92046B4
:1024C00003F01EFB0546A06B2843A06308E0A06B49
:1024D00040F00060A06303E0A06B40F08050A06378
:1024E000A06B38B1174821688863012084F8340054
:1024F000012713E060680390A0680490E0680590ED
:10250000069660690790A069089006A807C88DE83C
:102510000700206803A90EC902F056FD4FF40071B0
:10252000206802F0CDFD054635B106482168886374
:10253000A06B2843A0630127012084F834003846AB
:1025400009B0F0BDFF0540000246506F000E087054
:10255000506FC0F30F20488092F874000306906F0C
:1025600043EA102048607820805C0872D06F000E2B
:102570004872D06F03028020805843EA1060C86020
:1025800080208058C0F30350087480208058C0F326
:102590000B2048828020805CC0F346000875012033
:1025A000487500207047000010B50246506E800F3D
:1025B0000870506EC0F383604870506EC0F30160C5
:1025C0008870506E000CC870B2F86400000A087180
:1025D00092F864004871906E000DC880906EC0F350
:1025E000034008726820805AC0F3C03048726820E7
:1025F000805AC0F3803088726820805AC0F340301F
:10260000C8726820805AC0F30030087300204873F5
:10261000506C002836D16820805A8005030DD06E9A
:1026200043EA90700861D06EC0F3C2600875D06E46
:10263000C0F302604875D06EC0F342508875D06E0A
:10264000C0F38240C875D06EC0F3C2300876086906
:10265000401C50650B7E506D03F007039B1C01244A
:102660009C4060435065087A00F00F0301209840B9
:102670009065D2E915035B0A5843D0654FF40073A7
:10268000136621E0506C012813D16820805C80061D
:10269000830AD06E43EA104008610869401C830237
:1026A0005365536DD3654FF400739365936D136653
:1026B0000AE02E4813689863906B40F08050906356
:1026C000012082F8340010BD6C20805AC0F38030A5
:1026D00001F8190F6C20805AC0F3C61048706C20A6
:1026E000805C00F07F008870106FC00FC870106FA2
:1026F000C0F341700871106FC0F382604871106FB1
:10270000C0F383508871106FC0F34050C87100202F
:102710000872106FC0F3004048727020805AC0F3F6
:10272000C03088727020805AC0F38030C872702028
:10273000805AC0F3403008737020805AC0F30030D4
:1027400048737020805AC0F3812088737020805AAB
:10275000C0F30120C8737020805CC0F34600087489
:102760000120487419390020ADE70000FF05400042
:102770000246506C0860906C4860D06C8860106DA8
:10278000C860506D0861906D4861D06D8861106EB1
:10279000C86100207047F8B50446002000906946E3
:1027A000204603F095F9054615B1A06B2843A063B8
:1027B0000098C0F343263046F8BD10B504460CB966
:1027C000012010BD94F8340020B900202077204665
:1027D00000F068F8032084F83400204600F00CF87C
:1027E00008B10120EDE70020A0632063012084F8F8
:1027F00034000020E5E7000070B58AB004460020F0
:10280000049005900690079008907620099007A8FC
:1028100007C88DE80700206804A90EC902F0D4FBA0
:10282000064616B101200AB070BD00201B490860A1
:10283000206802F0E3FB01201849A039C1F8A0008C
:10284000204603F0DFF805463DB1012084F834004E
:10285000A06B2843A0630120E5E7204603F051F870
:1028600005463DB1012084F83400A06B2843A063E5
:102870000120D8E74FF40071206802F021FC0546E2
:102880004DB1074821688863A06B2843A0630120ED
:1028900084F83400C7E70020C5E70000A080254287
:1028A000FF05400010B586B0044600BF0020009030
:1028B0005348006840F400605149086008460068C9
:1028C00000F40060009000BF00BF00BF00BF002008
:1028D00000904B481438006840F00400484914390F
:1028E00008600846006800F00400009000BF00BFC8
:1028F00000BF00BF00BF002000900846006840F005
:10290000040008600846006800F00400009000BF62
:1029100000BF00BF00BF00BF002000900846006855
:1029200040F0040008600846006800F004000090D1
:1029300000BF00BF00BF00BF00BF002000900846DE
:10294000006840F0040008600846006800F00400D9
:10295000009000BF00BF00BF00BF00BF002000907C
:102960000846006840F0040008600846006800F06F
:102970000400009000BF00BF00BF00BF00BF0020E8
:1029800000900846006840F00800086008460068AB
:1029900000F00800009000BF00BF00BF8815019044
:1029A0000220029001200390022004900C20059048
:1029B00001A91448FEF76AF94FF40070019001A9CB
:1029C0001048FEF763F94FF48060019001A90D48AB
:1029D000FEF75CF94FF40060019001A90948FEF789
:1029E00055F94FF48050019001A90648FEF74EF9C1
:1029F0000420019001A90448FEF748F906B010BD73
:102A00004438024000080240000C02402DE9FF4F0C
:102A100089B004468B469946DDF858A0FEF756FA71
:102A200002900B9800905D46BBF1000F07D1A06BA0
:102A300040F00060A06301200DB0BDE8F08F94F875
:102A4000340001287ED10020A063009800EB09012A
:102A5000E06D814205D9A06B40F00070A0630120B9
:102A6000EAE7032084F8340000202168C862606C23
:102A7000012802D00098400200904FF0FF300390F0
:102A80004FEA4920049090200590022006900020F3
:102A900007900120089003A9206802F070FAB9F1AC
:102AA000010F07D9022020632068009902F070FB13
:102AB000804606E0012020632068009902F084FB34
:102AC0008046B8F1000F0DD0754821688863A06B6F
:102AD00040EA0800A063012084F83400002020634D
:102AE0000120A9E7049E3AE02068406B00F4004012
:102AF000E0B1DEB10020019015E0206802F087FA15
:102B000007462F706D1C761E380A28706D1C761EC5
:102B1000380C28706D1C761E380E28706D1C761EC1
:102B20000198401C019001980828E6D3FEF7CEF9E1
:102B30000299401A504502D2BAF1000F0FD15848FD
:102B4000216800E0A6E08863A06B40F00040A0632D
:102B5000012084F834000020206303206CE7206803
:102B6000406B40F22A3108400028BDD02068406BFD
:102B700000F48070D0B1B9F1010F17D9606C03284F
:102B800014D0206802F0E0FB8046B8F1000F0DD0B1
:102B9000434821688863A06B40EA0800A0630120D5
:102BA00084F8340000202063012045E72068406B52
:102BB00000F0080068B13A4821688863A06B40F0D3
:102BC0000800A063012084F8340000202063012065
:102BD00032E72068406B00F0020068B1304821689D
:102BE0008863A06B40F00200A063012084F83400E9
:102BF0000020206301201FE72068406B00F02000C8
:102C000068B1274821688863A06B40F02000A0636A
:102C1000012084F834000020206301200CE729E023
:102C2000206802F0F4F907462F706D1C761E380AF2
:102C300028706D1C761E380C28706D1C761E380EA0
:102C400028706D1C761EFEF741F90299401A504516
:102C500002D2BAF1000F0DD1114821688863A06B30
:102C600040F00040A063012084F83400002020637D
:102C70000120E1E62068406B00F4001008B1002E4E
:102C8000CED140F23A5021688863012084F83400A4
:102C90000020D1E6A06B40F00050A0630120CBE6FD
:102CA000FF0540002DE9F04F89B004468946934660
:102CB0009846FEF70BF90290DA464D46B9F1000F3F
:102CC00007D1A06B40F00060A063012009B0BDE80F
:102CD000F08F94F8340001287ED10020A0630AEB25
:102CE0000801E06D814205D9A06B40F00070A0633F
:102CF0000120EBE7032084F8340000202168C8623B
:102D0000606C012801D04FEA4A2A4FF0FF3003904F
:102D10004FEA4820049090200590002006900790EC
:102D20000120089003A9206802F029F9B8F1010FE9
:102D300007D9202020635146206802F023FB064675
:102D400006E0102020635146206802F037FB06465B
:102D500066B15F4821688863A06B3043A06301209F
:102D600084F83400002020630120AFE7049F43E093
:102D70002068406B00F4804030B32FB300200190F6
:102D80001FE0287800906D1C7F1E2878009941EA8A
:102D9000002000906D1C7F1E2878009941EA0040B9
:102DA00000906D1C7F1E2878009941EA0060009019
:102DB0006D1C7F1E6946206802F041F90198401C95
:102DC000019001980828DCD3FEF780F80299411A97
:102DD0001298814203D200E074E0129860B93C4836
:102DE00021688863A06B3043A063012084F834001D
:102DF00000202063032069E72068406B40F21A310D
:102E000008400028B4D02068406B00F48070B8B14E
:102E1000B8F1010F14D9606C032811D0206802F0BA
:102E200093FA064666B12A4821688863A06B30434E
:102E3000A063012084F8340000202063012045E7CE
:102E40002068406B00F0080068B121482168886361
:102E5000A06B40F00800A063012084F8340000203B
:102E60002063012032E72068406B00F0020068B167
:102E7000174821688863A06B40F00200A06301201E
:102E800084F834000020206301201FE72068406B95
:102E900000F0100068B10E4821688863A06B40F014
:102EA0001000A063012084F834000020206301207A
:102EB0000CE740F23A5021688863012084F834001E
:102EC000002003E7A06B40F00050A0630120FDE666
:102ED000FF05400010B504460CB9012010BD606A22
:102EE00038B96068B0F5827F00D105E00021E1616A
:102EF00002E0002121616161A06AB0F5005F00D1AC
:102F000000BF94F8510028B9002084F850002046F2
:102F100000F050F8022084F851002068006820F08A
:102F2000400021680860A08800F48270218901F4C3
:102F300004410843A18901F400610843217C01F0A8
:102F400002010843217D01F001010843218B01F4B6
:102F500000710843217F01F0380108432021095DF9
:102F600001F080010843218D01F4005108432168DC
:102F700008600421A06901EA104094F8241001F0CF
:102F80001001084321684860A06AB0F5005F03D1D2
:102F9000A08D80B2216808612068C06920F40060BB
:102FA0002168C86100206065012084F8510000207C
:102FB00094E7000010B586B004462A49206888428C
:102FC0004DD100BF00BF002000902748006840F0AE
:102FD0000200254908600846006800F002000090E1
:102FE00000BF00BF00BF00BF00BF00200090084628
:102FF000006840F0020008600846006800F0020027
:10300000009000BF00BF00BF00BF00BF00200090C5
:103010000846006840F0020008600846006800F0BA
:103020000200009000BF00BF00BF082001900220F6
:10303000029001200390022004900520059001A930
:103040000A48FDF723FE1020019001A90748FDF76B
:103050001DFE2020019001A90448FDF717FE06B0CF
:1030600010BD000000300140303802400004024032
:103070002DE9F04F85B00446884691461D460E9EC8
:1030800000200490012002900020019000BF94F8DD
:103090005000012803D1022005B0BDE8F08F0120C7
:1030A00084F8500000BFFDF711FF074694F851B0B7
:1030B00060680390AA46BBF1010F0BD00398B0F5EE
:1030C000827F04D1A06810B9BBF1040F02D00220A6
:1030D00001902CE1B8F1000F03D0B9F1000F00D03E
:1030E00015B90120019022E194F85100042802D082
:1030F000052084F8510000206065C4F83890E58709
:10310000A587C4F83080E586A58620646064A06A3F
:10311000B0F5005F0DD100BF2068006820F40050BA
:10312000216808602068006840F400502168086049
:1031300000BF2068006800F04000402805D02068EB
:10314000006840F0400021680860E068B0F5006F5A
:1031500056D1606810B1BAF1010F09D1206B008817
:103160002168C860206B801C2063E08E401EE086D2
:103170003FE02068806800F0020002281CD1E08E49
:10318000D0B10298012817D1206B00882168C8604F
:10319000206B801C2063E08E401EE08600200290A1
:1031A000E08E48B9A06AB0F5005F05D120680068DC
:1031B00040F48050216808602068806800F00100B9
:1031C00068B1E08F58B12068C068A16B0880A06B1F
:1031D000801CA063E08F401EE08701200290FDF775
:1031E00075FEC01BB04204D3701C10B103200190C7
:1031F0009DE0E08E0028BCD1E08F0028B9D156E0D8
:10320000606810B1BAF1010F09D1206B0078216814
:103210000873206B401C2063E08E401EE08640E077
:103220002068806800F0020002281CD1E08ED0B136
:103230000298012817D1206B007821680873206B51
:10324000401C2063E08E401EE08600200290E08E4D
:1032500048B9A06AB0F5005F05D12068006840F465
:103260008050216808602068806800F0010068B123
:10327000E08F58B12068C068A16B0870A06B401C3B
:10328000A063E08F401EE08701200290FDF71EFE44
:10329000C01BB04201D3701C00B916B903200190C5
:1032A00045E0E08E0028BBD1E08F0028B8D1A06AAD
:1032B000B0F5005F12D13346012211462046009737
:1032C00002F0BCFC30B1606D40F00200606503208C
:1032D00001902CE02068C068049000BF20688068DE
:1032E00000F01000102809D1606D40F00200606508
:1032F0004FF6EF7021688860012001903A46314610
:10330000204602F065FC20B101200190202060657C
:103310000DE0A06850B900BF002000902068C06890
:10332000009020688068009000BF00BF00BF0120AF
:1033300084F8510000BF002084F8500000BF0198BD
:10334000AAE670B504460E4615460CB9012070BDBC
:1033500094F8490028B9002084F84800204600F07D
:103360001CF804F108012068FDF7B6FB3146A2689D
:103370002068FDF7DFFB2946236BD4E90102FDF746
:1033800087FBA168206850F8210040F00100A26886
:10339000216841F822000020D9E77047042808D1AD
:1033A0004FF0E021096941F004014FF0E022116182
:1033B00007E04FF0E021096921F004014FF0E0221D
:1033C0001161704770B504462546681EB0F1807FD4
:1033D00001D301200FE0681E4FF0E02148610F216A
:1033E0004FF0FF3005F054F800204FF0E0218861E5
:1033F00007200861002070BD70477047704710B506
:10340000044620680069C0F34000D8B12068C06855
:10341000C0F34000B0B16FF00200216808610120E4
:1034200020772068806900F0030018B12046FFF77C
:10343000E5FF05E0204600F0ADF8204600F0ABF8CF
:103440000020207720680069C0F38000D8B1206890
:10345000C068C0F38000B0B16FF00400216808615B
:10346000022020772068806900F4407018B120465F
:10347000FFF7C4FF05E0204600F08CF8204600F07E
:103480008AF80020207720680069C0F3C000D8B116
:103490002068C068C0F3C000B0B16FF008002168B8
:1034A0000861042020772068C06900F0030018B18B
:1034B0002046FFF7A3FF05E0204600F06BF820460A
:1034C00000F069F80020207720680069C0F3001040
:1034D000D8B12068C068C0F30010B0B16FF0100020
:1034E00021680861082020772068C06900F44070D6
:1034F00018B12046FFF782FF05E0204600F04AF8A9
:10350000204600F048F8002020772068006900F08D
:10351000010058B12068C06800F0010030B16FF0C0
:10352000010021680861204600F036F82068006933
:10353000C0F3C01058B12068C068C0F3C01030B1EB
:103540006FF08000216808612046FFF755FF206872
:103550000069C0F3801058B12068C068C0F38010C3
:1035600030B16FF0400021680861204600F026F875
:1035700020680069C0F3401058B12068C068C0F3EB
:10358000401030B16FF02000216808612046FFF73D
:1035900034FF10BD7047704710B50446054884429B
:1035A00006D100BF4FF480610348FDF779FC00BFEE
:1035B00010BD0000740600200014024070477047E0
:1035C000704701460022002391F83D2091F83E30DB
:1035D00042EA0300704700002DE9F84F04462068D6
:1035E00005682068C668206847694FF00009CA4628
:1035F00005F00F09B9F1000F0AD105F0200038B12C
:1036000006F0200020B1204602F0A9FCBDE8F88FAA
:10361000B9F1000F72D007F0010018B906F49070EC
:1036200000286BD005F0010030B106F4807018B1AD
:10363000206C40F00100206405F0040030B107F078
:10364000010018B1206C40F00200206405F0020077
:1036500030B107F0010018B1206C40F00400206484
:1036600005F0080048B106F0200010B907F001008D
:1036700018B1206C40F008002064206C70B305F095
:10368000200028B106F0200010B1204602F067FCAF
:1036900020684069C0F3801A206C00F0080010B95F
:1036A000BAF1000F23D0204602F02EFC20684069BA
:1036B00000F04000402816D12068406920F040000A
:1036C00021684861A06B50B15648A16B0865A06B9A
:1036D000FDF7C1FA10B1A06B016D88470CE02046E0
:1036E000FFF76EFF08E02046FFF76AFF04E0204680
:1036F000FFF766FF0020206488E7FFE7206B0128C2
:1037000079D105F01000002875D006F010000028CF
:1037100071D000BF002000902068006800902068F1
:103720004068009000BF00BF2068406900F0400082
:10373000402839D1A06B006840681FFA80F8B8F1C2
:10374000000F30D0A08D40452DDDA4F82E80A06B59
:10375000C069B0F5807F1FD02068C06820F48070F9
:103760002168C8602068406920F001002168486134
:103770002068406920F0400021684861202084F8DA
:103780003E00002020632068C06820F010002168FF
:10379000C860A06BFDF70AFAA08DE28D801A81B295
:1037A0002046FFF70CFF31E7A08DE18D401A1FFA8C
:1037B00080F8E08DE8B1B8F1000F1AD02068C06839
:1037C00020F490702168C8602068406920F00100F2
:1037D00021684861202084F83E0000202063206892
:1037E000C06820F010002168C86041462046FFF7FD
:1037F000E6FE0BE7FFE705F0800030B106F0800041
:1038000018B1204602F043FD00E705F0400030B15A
:1038100006F0400018B1204602F091FBF6E600BF2A
:10382000F4E60000F55E000810B504460CB901206E
:1038300010BDA06900B100E000BF94F83D0028B9B8
:10384000002084F83C00204600F028F8242084F86A
:103850003D002068C06820F400502168C860204600
:1038600002F0DCFB2068006920F4904021680861C8
:103870002068406920F02A00216848612068C068FB
:1038800040F400502168C86000202064202084F8A3
:103890003D0084F83E000020CAE7000010B586B065
:1038A00004462E492068884255D100BF00BF002041
:1038B00000902B48006840F0100029490860084635
:1038C000006800F01000009000BF00BF00BF00BF04
:1038D00000BF0020009022481438006840F001002A
:1038E0001F49143908600846006800F00100009084
:1038F00000BF00BF00BF00BF00BF0020009008460F
:10390000006840F0010008600846006800F001000F
:10391000009000BF00BF00BF481501900220029038
:1039200001200390022004900720059001A90D4872
:10393000FDF7ACF94FF4806001900720059001A9D4
:103940000848FDF7A3F92520FDF711FB03221146D6
:103950002520FDF71CFB06B010BD00000010014043
:10396000443802400000024070B504460D46164639
:1039700094F83E00202816D105B10EB9012070BD83
:1039800000BF94F83C00012801D10220F7E7012094
:1039900084F83C0000BF00202063324629462046C0
:1039A00002F052FCEBE70220E9E7000010B5044604
:1039B0002049206888423BD11F48008800F400401D
:1039C00088BB1D48008800F4804070B11B48007817
:1039D0000A2803D000201849088024E016480088EF
:1039E00040F40040144908801DE0144800780D2878
:1039F00006D11148008840F480400F49088012E049
:103A00000E4800780C490988C1F30D010C4A505446
:103A100009480088401C0849088008460088C728D3
:103A200001DD00200880012204490648FFF79CFFC1
:103A300010BD000000100140280000202A000020D6
:103A400018050020E0050020704700BFFEE730B5F4
:103A50000B46002100BF16E00A24B4EB107F05D905
:103A6000302404EB107403F8114005E0412404EB0A
:103A700010740A3C03F81140000100254C00641C3E
:103A80001D554C1CE1B29142E6DB30BD70B50546D8
:103A9000D5F8BC4204B970BD48F210002044007B48
:103AA00050B948F210002044806828B1607A18B9F3
:103AB0000121284603F0B7F88121284603F0B3F826
:103AC000607A022807D18121284603F0ACF8012151
:103AD000284603F0A8F800BFDDE7000070B50546F2
:103AE000D5F8BC4204B970BD48F2100020444068CB
:103AF00048F230012144486048F2100020448068B8
:103B000048F23001214488600121284602F041FF3B
:103B10001F2816D148F2100000592E49884210D1B2
:103B200048F210002044407B02280ADC48F21000D2
:103B30002044807B28B148F210002044807B10286C
:103B40000ED948F210002044417B2023052228464C
:103B500000F0C7FF022060722846FFF797FF36E0AB
:103B600048F210002044417B48F2100022180F3226
:103B7000284600F06DFB00280BDA207A052804D1D6
:103B80000121284600F0E6F821E02846FFF77EFFF5
:103B90001DE0207A022819D0207A012816D0207A38
:103BA000032813D0E06830B104F110012846E26820
:103BB00000F0F4F80BE0E06820B90021284600F09E
:103BC000C9F804E02846FFF761FF00E08BE700BF7B
:103BD00089E700005553424370B506460D46D6F8B6
:103BE000BC4204B970BD607A022808D181213046F8
:103BF00003F019F80121304603F015F80CE005F048
:103C00008000802807D1607A012804D00121304645
:103C100000F0A0F800E0E5E700BFE3E770B5054677
:103C20000E46D5F8BC4204B970BD207A022804D0F3
:103C3000032815D0042818D111E048F210002044C0
:103C4000417B48F2100022180F32284600F000FB9A
:103C5000002803DA0121284600F07CF806E000BFC6
:103C60000021284600F076F800E000BF00BF00BF4A
:103C7000DAE770B505460E46D5F8BC4204B970BD0A
:103C8000207A10B1012816D103E02846FFF726FF5D
:103C900012E048F210002044417B48F21000221844
:103CA0000F32284600F0D4FA002803DA0121284612
:103CB00000F050F800E000BF00BF00BFDFE70146A2
:103CC000D1F8BC0208B100220272704770B50546F7
:103CD000D5F8BC4204B970BD00202072607200218A
:103CE00048F261000155401E0155801C0155D5F870
:103CF000C0020168002088470121284602F03FFEEB
:103D00008121284602F03BFE1F2348F210002218B2
:103D10000121284602F0D0FE00BFDCE770B5054661
:103D2000D5F8BC4204B970BD002020720120607239
:103D30008121284602F044FD0121284602F040FD81
:103D40001F2348F2100022180121284602F0B4FE79
:103D500000BFE8E770B505460E46D5F8BC4204B989
:103D600070BD0D4948F23000015120440673002017
:103D700020720D2348F2300022188121284602F0DB
:103D80006EFF1F2348F2100022180121284602F07E
:103D900093FE00BFE4E70000555342532DE9F04184
:103DA00006460F461546D6F8BC4248F2100020449D
:103DB0008068A84204D248F210002044806800E0E5
:103DC000284680460CB9BDE8F08148F23000204416
:103DD0008068401B48F2300121448860002048F28E
:103DE0003001214408730420207243463A46812161
:103DF000304602F034FF00BFE5E700BFFEE7704742
:103E000010B500BF5021EFF3118081F31188BFF38B
:103E10004F8FBFF36F8F00BF04460448FDF71CFBB4
:103E2000204680F3118800BF10BD000040F401203F
:103E30002DE9F04704460D4626683746D6F84080FF
:103E400007F5306000EB4510D0F808901048804529
:103E50000BD909F40040B0F5004F06D14FF40041F2
:103E600007F5306000EB451081602046FDF740FF0C
:103E70000748804508D92069012805D104F57172E9
:103E80000121206803F022FF0020BDE8F087000038
:103E90000A30544F2DE9F04705460C46D5F800800E
:103EA0004646D8F8409006F5306000EB441087682D
:103EB0002869012873D107F0080008280FD152485B
:103EC00081450BD907F40040B0F5004F06D14FF4FF
:103ED000004106F5306000EB4410816091E007F08E
:103EE0002000202806D1202106F5306000EB441088
:103EF000816086E007F0280000280ED14248814505
:103F00000CD907F40040B0F5004F07D14FF4004141
:103F100006F5306000EB4410816072E0C4EBC40130
:103F200005F5FE7000EB8100816806F5306000EB5E
:103F300044100069C0F31200091AC4EBC40205F56D
:103F4000FE7000EB82008161C4EBC40105F5FE70D8
:103F500000EB8100C4EBC402C16805F5FE7000EB04
:103F6000820080680144C4EBC40205F5FE7000EBDA
:103F70008200C1606CB9C4EBC40105F5FE7000EBB2
:103F80008100406928B905F571720121286803F0A4
:103F90009DFEE1B22846FDF7A9F832E0FFE71B4895
:103FA00081451BD107F40040B0F5004F07D14FF415
:103FB000004106F5306000EB4410816021E007F01D
:103FC0002000202805D1202106F5306000EB4410A8
:103FD0008160E1B22846FDF789F812E06CB9C4EBC4
:103FE000C40105F5FE7000EB8100406928B905F5B4
:103FF00071720021286803F069FEE1B22846FDF7DE
:1040000075F80020BDE8F0870A30544F0A31544F4C
:104010002DE9F84F07460E46D7F80090C846C6EB84
:10402000C60107F13C0000EB8104D4E90510884289
:1040300002D90120BDE8F88FD4E90501451AA0682E
:10404000A84200D2A568E81C4FEA900A17E0D4E91C
:104050000501451AA068A84200D2A568E81C4FEAED
:10406000900A387CABB2F2B200904846E16804F0A6
:10407000E7F9E0682844E060A0692844A06108F5F9
:10408000106000EB4610806980B2504506D3D4E939
:104090000510884202D260690028D8D1D4E9050110
:1040A00088420ED806F00F01012000FA01FB40F60D
:1040B000340050F8080020EA0B0040F6340141F8C3
:1040C00008000020B6E730B503460C46D3F8BC1212
:1040D00011B94FF0FF3030BD107920B9002548F2FA
:1040E0006200455403E0012548F262004554002077
:1040F000C86000BFEFE72DE9F04104460D46904649
:104100001E46D4F8BC721FB94FF0FF30BDE8F081F5
:1041100008EB060048F26801394451F8251088423E
:1041200008D9212305222946204600F0DAFC4FF069
:10413000FF30EBE70020E9E72DE9F0470646894626
:104140001446D6F8BC521DB94FF0FF30BDE8F087D9
:1041500048F210002844806858B948F210002844FA
:10416000417B20230522304600F0BBFC4FF0FF309E
:10417000ECE7607800F00100E0B1A07828B90622F1
:104180001749284600F05DFD28E0A078802805D179
:1041900008221449284600F054FD1FE048F21000A0
:1041A0002844417B24230522304600F09AFC4FF03E
:1041B000FF30CBE7D6F8C002C06909EBC90100EBBC
:1041C0008107387900F105082079404501DC94F831
:1041D000048042463946284600F033FD0020B5E70A
:1041E0007E010020840100202DE9F041054688462B
:1041F0001446D5F8BC721B261FB94FF0FF30BDE83E
:10420000F081207AB04200DC267A324602493846F4
:1042100000F017FD0020F2E7A30100202DE9F04196
:10422000054688461446D5F8BC7217261FB94FF0CC
:10423000FF30BDE8F0812079B04200DC26793246BB
:104240000249384600F0FDFC0020F2E78C01002016
:104250002DE9F041054688461646D5F8BC721FB9CF
:104260004FF0FF30BDE8F0813078252859D00FDCC1
:104270001A2841D005DCE0B1032821D0122873D1DF
:1042800025E01B282AD01E282FD023287BD141E0EF
:104290005A2838D006DC282851D02A285DD02F286B
:1042A00071D169E09E2843D0A8284FD0AA286AD1AE
:1042B0005BE032464146284600F083FC04466CE051
:1042C00032464146284600F0A5FB044665E03246EA
:1042D00041462846FFF730FF04465EE0324641463D
:1042E000284600F030FC044657E032464146284656
:1042F000FFF7E9FE044650E0324641462846FFF704
:104300008DFF044649E0324641462846FFF76CFFE0
:10431000044642E032464146284600F02CFB044663
:104320003BE032464146284600F046FA044634E077
:1043300032464146284600F09EFA04462DE03246B9
:104340004146284600F024F9044626E0324641461C
:10435000284600F0A3F904461FE0324641462846AD
:1043600000F0B0FC044618E00DE032464146284615
:1043700000F052FD044610E032464146284600F067
:1043800074FC044609E0202305224146284600F03B
:10439000A8FB02207872C41E00BF00BF204661E760
:1043A0002DE9F04106460F46D6F8BC4248F27800A7
:1043B000005948F26401095B00FB01F51CB94FF09C
:1043C000FF30BDE8F081B5F5004F01D2284601E08D
:1043D0004FF40040054648F26400005BB5FBF0F086
:1043E0001FFA80F848F270000259D6F8C00243461E
:1043F00004F11001D0F810C03846E047002808DA70
:10440000112304223946304600F06BFB4FF0FF3099
:10441000D7E72B4604F110028121304602F01FFC41
:1044200048F26400005BB5FBF0F048F270021259EC
:1044300048F274031B59801843F1000148F27002DE
:104440001051101D015148F26400005BB5FBF0F102
:1044500048F278000059411A48F27800015148F2B8
:10446000300020448068401B48F2300121448860BD
:1044700048F27800005908B9032020720020A0E714
:104480002DE9F04106460F46D6F8BC4248F27800C6
:10449000005948F26401095B00FB01F51CB94FF0BB
:1044A000FF30BDE8F081B5F5004F01D2284601E0AC
:1044B0004FF40040054648F26400005BB5FBF0F0A5
:1044C0001FFA80F848F270000259D6F8C00243463D
:1044D00004F11001D0F814C03846E047002808DA8B
:1044E000032304223946304600F0FBFA4FF0FF3038
:1044F000D7E748F26400005BB5FBF0F048F27002C9
:10450000125948F274031B59801843F1000148F214
:1045100070021051101D015148F26400005BB5FBA0
:10452000F0F148F278000059411A48F27800015140
:1045300048F2300020448068401B48F2300121449A
:10454000886048F27800005920B900213046FFF712
:1045500001FC1BE048F27800005948F26401095B55
:104560004843B0F5004F07D248F27800005948F2AE
:104570006401095B484301E04FF4004005462B46C7
:1045800004F110020121304602F096FA002088E77B
:104590002DE9F04106460F461546D6F8BC421CB937
:1045A0004FF0FF30BDE8F081207A00286ED148F24C
:1045B00010002044007B00F0800080280BD048F2DF
:1045C00010002044417B20230522304600F089FA68
:1045D0004FF0FF30E6E748F26200005D022808D1A4
:1045E0003A2302223946304600F07BFA4FF0FF3082
:1045F000D8E7D6F8C00281683846884740B13A23E8
:1046000002223946304600F06CFA4FF0FF30C9E71D
:10461000A8780006E97840EA0140297940EA0120BB
:1046200069790843002148F270021051101D0151B0
:10463000287AE97940EA012148F2780001510359CA
:104640001046025939463046FFF755FD002802DA78
:104650004FF0FF30A6E748F27800005948F26401B5
:10466000095B484348F210012144896888420BD015
:1046700048F210002044417B20230522304600F000
:1046800030FA4FF0FF308DE7022020724FF40040E7
:10469000E06039463046FFF783FE83E72DE9F041BD
:1046A00006460F461546D6F8BC421CB94FF0FF30FF
:1046B000BDE8F081207A002876D148F2100020442D
:1046C000007B00F0800080280BD048F210002044CE
:1046D000417B20230522304600F003FA4FF0FF30E3
:1046E000E6E748F26200005D022808D13A23022280
:1046F0003946304600F0F5F94FF0FF30D8E7D6F8EC
:10470000C00281683846884740B13A2302223946C0
:10471000304600F0E6F94FF0FF30C9E7A878000610
:10472000E97840EA0140297940EA012069790843A3
:10473000002148F270021051101D0151A8790006A5
:10474000E97940EA0140297A40EA0120697A084380
:1047500048F2780108510846035910460259394673
:104760003046FFF7C8FC002802DA4FF0FF309FE721
:1047700048F27800005948F26401095B484348F266
:1047800010012144896888420CD048F2100020446E
:10479000417B20230522304600F0A3F94FF0FF3083
:1047A00086E701E0022020724FF40040E0603946C5
:1047B0003046FFF7F5FD7BE72DE9F04106460D4653
:1047C0009046D6F8BC421CB94FF0FF30BDE8F081EE
:1047D00048F26800204400EB8501D6F8C002436827
:1047E00048F26400221828469847074627B948F23D
:1047F0006200005D022808D13A2302222946304691
:1048000000F06FF94FF0FF30E0E748F26800204415
:1048100050F82500401E000E207448F26800204425
:1048200050F82500401E010C617448F268002044D5
:1048300030F82500401E010AA17448F268002044A7
:1048400010F82500401EE07448F26400005B011679
:10485000217548F26400005B0114617548F2640040
:10486000005B0112A17548F26400015DE17508204A
:10487000E0600020AAE72DE9F04780460E46154685
:10488000D8F8BC421CB94FF0FF30BDE8F08748F2C1
:104890006800204400EB8601D8F8C002436848F263
:1048A00064002218304698478146B9F1000F04D1C0
:1048B00048F26200005D022808D13A230222314604
:1048C000404600F00EF94FF0FF30DEE7A87A000610
:1048D000E97A40EA0140297B40EA0120697B0843EC
:1048E000E060002705E0002104F11000C155781CAC
:1048F000C7B2E068B842F6D848F26800204450F8E1
:104900002600401E010E217548F26800204450F830
:104910002600401E010C617548F26800204430F802
:104920002600401E010AA17548F26800204410F8D4
:104930002600401EE07548F26400005B01162176F7
:1049400048F26400005B0114617648F26400005B89
:104950000112A17648F26400015DE176A87A0006B2
:10496000E97A40EA0140297B40EA0120697B08435B
:10497000E060002089E72DE9FC470646884691461D
:10498000D6F8BC421CB94FF0FF30BDE8FC87D6F822
:10499000C00201AA6946436840469847074627B9BE
:1049A00048F26200005D022808D13A230222414603
:1049B000304600F096F84FF0FF30E6E7002505E0BE
:1049C000002104F110004155681C85B20C2DF7D36D
:1049D0000821E1740098401E010E21750098401EC8
:1049E000010C61750098401E010AA1750098401ED7
:1049F000E07502212176BDF8040001146176BDF84E
:104A000004000112A176BDF80400E0760C20E060FD
:104A10000020BAE72DE9F041074688461646D7F848
:104A2000BC421CB94FF0FF30BDE8F08148F21000E5
:104A30002044806858B948F210002044417B20236C
:104A40000522384600F04DF84FF0FF30ECE7002526
:104A500005E0002104F110004155681CC5B2122D7B
:104A6000F7D3702020740C21E17548F26000015DDD
:104A7000401C005D81422BD048F26000005D48F28E
:104A80004001214411F83010A17448F26000005D2B
:104A900048F24001214401EBC0000179217748F23E
:104AA0006000005D48F24001214401EBC000417903
:104AB000617748F26000005D401CC1B248F26000BE
:104AC0000155005D042803D1002148F26000015522
:104AD0001220E0603079122801D83079E06000209F
:104AE000A2E7F0B50446D4F8BC0200B9F0BD48F224
:104AF00061052D5C48F24006064406F8352048F270
:104B000061052D5C48F24006064406EBC5052B7195
:104B1000002648F261052D5C48F24007074407EB88
:104B2000C5056E7148F261052D5C6D1CEEB248F250
:104B300061052E542D5C042D03D1002648F2610539
:104B40002E5400BFD2E7F0B506460F461546D6F8FC
:104B5000BC4214B94FF0FF30F0BD48F26200005D76
:104B600001280DD1287900F00300022808D1242360
:104B7000052239463046FFF7B4FF4FF0FF30EBE730
:104B8000287900F00300012804D1002148F26200D6
:104B9000015512E0287900F00300022804D1022117
:104BA00048F26200015508E0287900F0030003286C
:104BB00003D1002148F2620001550020E06000BFEF
:104BC000CAE72DE9F04105460E461746D5F8BC4226
:104BD0001CB94FF0FF30BDE8F08148F210002044CE
:104BE000806858B148F210002044417B2023052200
:104BF0002846FFF776FF4FF0FF30ECE748F26200FF
:104C0000005D022809D13A23022231462846FFF7E7
:104C100068FF05202072801FDDE7D5F8C00281689B
:104C20003046884748B13A23022231462846FFF7EA
:104C300058FF05202072801FCDE70020E06000BFF4
:104C4000C9E730B503460C46114613B94FF0FF30A3
:104C500030BDD96005E0481E81B2655C03F11000EB
:104C600045540029F7D10020F2E72DE9F04105462F
:104C70000F461646D5F8BC421CB94FF0FF30BDE8D0
:104C8000F081707800F00200022808D12423052268
:104C900039462846FFF725FF4FF0FF30EFE748F28F
:104CA0007800035948F27000025939462846FFF748
:104CB00022FA002802DA4FF0FF30E0E70020E0603F
:104CC00000BFDCE72DE9F041064688461546D6F8D8
:104CD000BC421CB94FF0FF30BDE8F081207A0028BB
:104CE0007DD148F210002044806858B948F2100085
:104CF0002044417B202305223046FFF7F2FE4FF08F
:104D0000FF30E9E748F210002044007B00F080000B
:104D100080280BD148F210002044417B202305223B
:104D20003046FFF7DEFE4FF0FF30D5E7D6F8C00281
:104D300081684046884740B13A23022241463046C6
:104D4000FFF7CFFE4FF0FF30C6E7D6F8C002C168CC
:104D50004046884740B12723022241463046FFF7AC
:104D6000C0FE4FF0FF30B7E7A8780006E97840EAC8
:104D70000140297940EA012069790843002148F27D
:104D800070021051101D0151287AE97940EA012181
:104D900048F2780001510359104602594146304605
:104DA000FFF7A9F9002802DA4FF0FF3094E748F244
:104DB0007800005948F26401095B00FB01F748F2F2
:104DC000100020448068B8420DD048F21000204402
:104DD000417B202305223046FFF783FE00E014E0EC
:104DE0004FF0FF3078E7B7F5004F01D2384601E0C9
:104DF0004FF400400746012020723B4604F11002A8
:104E00000121304601F058FE04E041463046FFF7EC
:104E100037FB61E700205FE72DE9F0410646884651
:104E20001546D6F8BC421CB94FF0FF30BDE8F08102
:104E3000207A00287DD148F210002044806858B9BB
:104E400048F210002044417B202305223046FFF722
:104E500048FE4FF0FF30E9E748F210002044007BA5
:104E600000F0800080280BD148F210002044417BE4
:104E7000202305223046FFF734FE4FF0FF30D5E700
:104E8000D6F8C00281684046884748B13A230222DA
:104E900041463046FFF725FE05202072801FC5E7FA
:104EA000D6F8C002C1684046884748B1272302228D
:104EB00041463046FFF715FE05202072801FB5E7FA
:104EC000A8780006E97840EA0140297940EA012003
:104ED00069790843002148F270021051101D0151F8
:104EE000A8790006E97940EA0140297A40EA0120E0
:104EF000697A084348F27801085108460359104678
:104F0000025941463046FFF7F6F8002802DA4FF022
:104F1000FF308BE748F27800005948F26401095BE2
:104F200000FB01F748F2100020448068B8420DD021
:104F300000E01DE048F210002044417B20230522C0
:104F40003046FFF7CEFD4FF0FF306FE7B7F5004F6B
:104F500001D2384601E04FF400400746012020729C
:104F60003B4604F110020121304601F0A5FD04E0AA
:104F700041463046FFF784FA58E7002056E710B55F
:104F8000024600230868506248689062D1E9020432
:104F900020430C6920434C6920430343D06A20F02E
:104FA000F7001843D062002010BD01460869C0B266
:104FB00070470146086800F003007047024602F19E
:104FC00014004318186870470FB410B50446002148
:104FD000DDE903021043059A1043069A1043079A2D
:104FE0001043089A10430143606847F6FF629043FC
:104FF00008436060002010BC5DF814FB10B5044647
:10500000032020600220FBF73AFE002010BD01467D
:10501000D1F88000704710B5024600230868906000
:10502000D1E901042043CC6820430C6920430343A9
:10503000D0686FF30B001843D060002010BD02460B
:105040000868C2F880000020704770B586B0054639
:105050000C460194372002904020039000200490D9
:105060004FF48060059001A92846FFF7D4FF41F274
:1050700088323721284600F0DDF90646304606B072
:1050800070BD000070B586B005460C460B48204345
:1050900001902920029040200390002004904FF4BA
:1050A0008060059001A92846FFF7B5FF284600F06B
:1050B000C9FA0646304606B070BD000000001080F8
:1050C00070B586B005460C46019410200290402031
:1050D0000390002004904FF48060059001A92846B9
:1050E000FFF799FF41F288321021284600F0A2F91B
:1050F0000646304606B070BD70B586B005460C4613
:1051000001940620029040200390002004904FF468
:105110008060059001A92846FFF77DFF41F28832A3
:105120000621284600F086F90646304606B070BDD6
:1051300030B585B0044600200090019002900390A5
:105140004FF48060049069462046FFF764FF2046D4
:1051500000F050F90546284605B030BD30B585B0A1
:1051600004464FF4D5700090082001904020029032
:10517000002003904FF48060049069462046FFF7BA
:105180004AFF204600F0E6FA0546284605B030BD45
:1051900070B586B005460C4601941220029040205E
:1051A0000390002004904FF48060059001A92846E8
:1051B000FFF731FF41F288321221284600F03AF918
:1051C0000646304606B070BD70B586B005460C4642
:1051D00001941120029040200390002004904FF48D
:1051E0008060059001A92846FFF715FF41F288323B
:1051F0001121284600F01EF90646304606B070BD63
:10520000F0B585B0064614461D460094072001906F
:1052100040200290002003904FF480600490694683
:105220003046FFF7F8FE41F288320721304600F0A1
:1052300001F90746384605B0F0BD30B585B00446E3
:105240000020009002200190C020029000200390D6
:105250004FF48060049069462046FFF7DCFE20464C
:1052600000F0BEF90546284605B030BD70B586B0E1
:1052700005460C46019409200290C02003900020AE
:1052800004904FF48060059001A92846FFF7C3FE03
:10529000284600F0A5F90646304606B070BD30B588
:1052A00085B00446002000903320019040200290F9
:1052B000002003904FF48060049069462046FFF779
:1052C000AAFE41F288323321204600F0B3F80546A9
:1052D000284605B030BD70B586B005460C46019431
:1052E0000D20029040200390002004904FF4806035
:1052F000059001A92846FFF78EFE41F288320D2164
:10530000284600F097F80646304606B070BD70B5E6
:1053100086B005460C4600200190032002904020F4
:105320000390002004904FF48060059001A9284666
:10533000FFF771FE22460321284600F0AFF906462A
:10534000304606B070BD000030B585B00446002080
:1053500000900C20019040200290002003904FF418
:105360008060049069462046FFF755FE044A0C21F0
:10537000204600F05FF80546284605B030BD000025
:1053800000E1F50570B586B005460C46019419207C
:10539000029040200390002004904FF4806005901C
:1053A00001A92846FFF737FE41F288321921284625
:1053B00000F040F80646304606B070BD70B586B0C5
:1053C00005460C46019418200290402003900020CE
:1053D00004904FF48060059001A92846FFF71BFE5A
:1053E00041F288321821284600F024F8064630465B
:1053F00006B070BD01460E480068C0084FF47A73CD
:10540000B0FBF3F041F2883300FB03F200BF101E43
:10541000A2F1010202D14FF000407047486B00F04A
:1054200080000028F3D0C52088630020F5E7000045
:10543000000000202DE9F04305460F4690466648DF
:105440000068C0084FF47A71B0FBF1F000FB08F976
:1054500000BFB9F10000A9F1010903D14FF00040EC
:10546000BDE8F0836E6B06F045000028F1D006F42D
:1054700000600028EDD1686B00F0040010B104203A
:10548000A863EDE7686B00F0010010B10120A8638C
:10549000E6E7C520A8632846FFF787FDB84201D09C
:1054A0000120DDE700212846FFF788FD04464B4830
:1054B000204008B90020D3E704F00040B0F1004FCD
:1054C00002D14FF00070CBE704F08040B0F1804F84
:1054D00001D14020C4E704F00050B0F1005F01D1D9
:1054E0008020BDE704F08050B0F1805F02D14FF41E
:1054F0008070B5E704F00060B0F1006F02D14FF4A6
:105500000070ADE704F08060B0F1806F02D14FF41D
:105510008060A5E704F08070B0F1807F02D14FF485
:1055200000609DE704F40000B0F5000F02D14FF4D5
:10553000805095E704F48000B0F5800F02D14FF45D
:1055400000508DE704F40010B0F5001F02D14FF4B5
:10555000804085E704F48010B0F5801F02D14FF43D
:1055600000407DE704F48020B0F5802F02D14FF495
:10557000003075E704F40030B0F5003F02D14FF47D
:1055800080206DE704F48030B0F5803F02D14FF405
:10559000002065E704F40040B0F5004F02D14FF45D
:1055A00080105DE704F48040B0F5804F02D14FF4E5
:1055B000001055E704F40050B0F5005F02D14FF43D
:1055C00080004DE704F00800082801D1000547E7F6
:1055D0004FF4803044E700000000002008E0FFFDA9
:1055E00010B5014616480068C0084FF47A74B0FB45
:1055F000F4F041F2883400FB04F300BF181EA3F15D
:10560000010302D14FF0004010BD4A6B02F045008B
:105610000028F3D002F400600028EFD1486B00F0BE
:10562000040010B104208863EEE7486B00F001002D
:1056300010B101208863E7E7C52088630020E3E715
:105640000000002010B5014613480068C0084FF460
:105650007A74B0FBF4F041F2883400FB04F300BF2D
:10566000181EA3F1010302D14FF0004010BD4A6B98
:1056700002F045000028F3D002F400600028EFD1CA
:10568000486B00F0040010B104208863EEE7C520E9
:1056900088630020EAE70000000000202DE9F043C5
:1056A00004460F4690462A480068C0084FF47A71B5
:1056B000B0FBF1F041F2883100FB01F900BFB9F114
:1056C0000000A9F1010903D14FF00040BDE8F083CB
:1056D000666B06F045000028F1D006F40060002853
:1056E000EDD1606B00F0040010B10420A063EDE781
:1056F000606B00F0010010B10120A063E6E72046D6
:10570000FFF753FCB84201D00120DFE7C520A063BA
:1057100000212046FFF752FC054605F4604020B901
:10572000280CA8F800000020D0E705F48040B0F570
:10573000804F02D14FF40050C8E705F40040B0F5A7
:10574000004F02D14FF48050C0E74FF48030BDE7E6
:105750000000002010B5014618480068C0084FF44A
:105760007A74B0FBF4F041F2883400FB04F300BF1C
:10577000181EA3F1010302D14FF0004010BD4A6B87
:1057800002F045000028F3D002F400600028EFD1B9
:10579000486B00F0040010B104208863EEE7486B0A
:1057A00000F0010010B101208863E7E7486B00F0CA
:1057B000400008B1402088630020DFE7000000209F
:1057C0002DE9F04389B004460F46FBF77FFB814685
:1057D0004FF000080020019002903E46082120680A
:1057E000FFF76EFC05461DB1284609B0BDE8F08301
:1057F0005022125B11042068FFF727FC05460DB10B
:105800002846F2E74FF0FF30039008200490302044
:10581000059002200690002007900120089003A91F
:105820002068FFF7ACFB2068FFF739FD05460DB196
:105830002846DAE71CE02068406B00F4001040B115
:105840002068FFF7E4FB01A941F8280008F10108EE
:1058500005E02068406B00F4005000B90EE0FBF753
:1058600035FBA0EB0900401C10B94FF00040BCE72D
:105870002068406B00F02A000028DCD000BF2068C0
:10588000406B00F0080018B1082021688863ACE77D
:105890002068406B00F0020018B102202168886384
:1058A000A3E72068406B00F0200018B12020216899
:1058B00088639AE740F23A502168886302980006AC
:1058C000029901F47F4140EA0120029901F47F012D
:1058D00040EA1120029940EA11603060361D0198BB
:1058E0000006019901F47F4140EA0120019901F489
:1058F0007F0140EA1120019940EA116030600020E8
:1059000073E730B58FB00446012003902068FFF79D
:1059100050FB18B94FF080600FB030BD606C0328A9
:105920001BD02068FFF789FC05460DB12846F3E738
:1059300000212068FFF742FB606704212068FFF721
:105940003DFBA06708212068FFF738FBE0670C21CA
:105950002068FFF733FB80210851606C032807D0D3
:1059600003A92068FFF7D3FC05460DB12846D3E70D
:10597000606C032820D0BDF80C1021655022125B0A
:1059800011042068FFF772FC05460DB12846C3E7F5
:1059900000212068FFF712FB606604212068FFF7F2
:1059A0000DFBA06608212068FFF708FBE0660C21CC
:1059B0002068FFF703FB206704212068FFF7FEFA49
:1059C000010DE16404A92046FCF7EEFD10B14FF093
:1059D0008050A1E75020005B01040A4600232068A4
:1059E000FFF70EFC05460DB1284695E7D4E90412F1
:1059F000A069CDE90012029094E80F00FFF7E4FAE5
:105A0000002089E7F8B50446002000900026002712
:105A10002068FFF78DFB05460DB12846F8BD2068CC
:105A2000FFF79CFB054645B10021A1642068FFF704
:105A30007FFB05461DB12846F0E70121A164A06C5B
:105A4000012808D100212068FFF7FFFA054615B1AB
:105A50004FF08050E2E71DE000212068FFF7F5FAE3
:105A600005460DB12846D9E718492068FFF70AFB1B
:105A7000054615B14FF08050D0E700212068FFF7B0
:105A80009DFA0646012080EAD67080F00107009852
:105A9000401C00904FF6FF710098884201D2002F01
:105AA000DAD04FF6FF710098884202D34FF0807031
:105AB000B4E706F08040B0F1804F02D1012060646D
:105AC00001E0002060640020A8E70000000010C191
:105AD00070B504460D4615B94FF0006070BD5022F8
